:020000040800F2
:1000000028220020F52E0008F12E0008B54B00082C
:10001000B74B0008B94B0008BB4B000800000000BC
:10002000000000000000000000000000F12E0008A9
:10003000F12E000800000000F12E0008F12E00084B
:10004000F12E0008F12E0008F12E0008F12E000814
:10005000F12E0008F12E0008F12E0008F12E000804
:10006000F12E0008F12E0008F12E0008F12E0008F4
:10007000F12E0008F12E0008F12E0008F12E0008E4
:10008000F12E0008F12E0008F12E000800000000FB
:10009000000000000000000000000000F12E000839
:1000A000F12E0008F12E0008F12E0008F12E0008B4
:1000B000590D0008FD0D0008B50E0008F12E0008CE
:1000C000F12E0008F12E0008F12E0008F12E000894
:1000D000F12E0008ED330008D9390008593D000819
:1000E000F12E000815060008F12E0008F12E000878
:1000F000F12E0008F12E00080000000000000000B2
:10010000F12E000800000000F12E0008F12E00087A
:100110001D360008753B0008F12E0008610F00082D
:10012000F12E0008F12E0008F12E0008F12E000833
:10013000F12E00085FF808F131B9064A13889BB226
:1001400023EA000010807047024A13889BB21843CC
:100150001080704700280040034A93889BB243F008
:1001600010039380704700BF00280040034A938823
:1001700023F010031B041B0C9380704700280040E1
:10018000034A938B9BB2108B43EA0040704700BF39
:100190000028004010B50446FFF7DEFF220C034B99
:1001A0001A83A4B29C83FFF7E1FF10BD0028004032
:1001B00010B50446FFF7D0FFC4F30342034B1A8186
:1001C000A4B29C81FFF7D2FF10BD00BF0028004001
:1001D00010B50446FFF7C0FF220C034B1A84A4B2EB
:1001E0009C84FFF7C3FF10BD00280040024A93889B
:1001F00013F0200FFBD0704700280040054A938879
:1002000023F008031B041B0C9380938813F0080F42
:10021000FBD0704700280040074A93889BB21288A1
:10022000104206D0034013F0FF0F14BF012000203E
:1002300070470020704700BF00280040034A9388A1
:100240009BB223EA00009080704700BF0028004066
:1002500003889BB2244A904212D002F50062904279
:100260000ED0B0F1804F0BD0A2F59832904207D05B
:1002700002F58062904203D002F58062904203D181
:1002800023F070034A881343184A904225D002F5A0
:100290008062904221D023F440739BB2CA881343FA
:1002A00003808B8883850B8803850F4B98420FD082
:1002B00003F5006398420BD003F54063984207D0E2
:1002C00003F58063984203D003F58063984201D11F
:1002D0000B7A038601238382704703808B88838592
:1002E0000B880385F6E700BF002C0140001000409A
:1002F00031B9038823F001031B041B0C03807047F2
:1003000003889BB243F00103038070472AB98389B5
:100310009BB223EA01018181704783899BB2194313
:1003200081817047028A83899BB2114204D01942AD
:1003300014BF01200020704700207047C94389B2D4
:100340000182704770470000BFF34F8F0449CA68AD
:1003500002F4E062034B1343CB60BFF34F8FFEE721
:1003600000ED00E00400FA05034B187059609A6034
:1003700000221A73704700BF9004002029B9054A73
:10038000536823EA000353607047024A53680343EB
:10039000536070479004002029B9054A936823EA06
:1003A000000393607047024A936803439360704769
:1003B0009004002008B5124B1B7B13B1104B9B68B7
:1003C00093B10F4B1B7873B10D4A52680AB9022BD7
:1003D0000CD040210B4800F04DFC0B4A136923F070
:1003E0001003136130BF08BDFFF7AEFF4021054881
:1003F00000F040FC0121084600F0C2FB08BD00BF30
:10040000900400200008014000ED00E008B500F075
:100410007BFAC0F38F11092000F070F80122014B24
:100420001A7308BD9004002062B110B4431E013954
:10043000541EA4B2204413F8012F01F8012F834267
:10044000F9D110BC7047F8B506460F4614461D4654
:1004500072B601210420FFF79FFF02F097FED5B985
:10046000640810D0013CA5B2013507EB45053C46B8
:10047000F61B204600F08AFA0146A01902F01EFF82
:100480000234A542F5D102F08DFE00210420FFF7D1
:1004900083FF62B6F8BD26F47F7020F0030002F0FF
:1004A000B7FEDDE7F8B506460F4614461D4672B6A0
:1004B00001210420FFF770FF02F068FEBDB9A50816
:1004C0000DD03C1F013DADB207EB8505F61B043690
:1004D000301954F8041F02F0BBFEAC42F8D102F010
:1004E00061FE00210420FFF757FF62B6F8BD26F435
:1004F0007F7020F0030002F08BFEE0E708B580007B
:10050000043004F07BFC08BD29B9054A536823EA8E
:10051000000050607047024A5368184350607047AB
:10052000002004E008B545F2555004F0ABFC06206D
:1005300004F0AEFC40F6FF7004F0B0FC04F0B4FC34
:1005400004F0BAFC08BD30B585B0012000F00CFB0A
:1005500000F0DAF900283FD104F048FC012002F055
:1005600061FA4124204602F007FB0028FAD04FF43C
:10057000807002F06BFA012002F070FAFFF73EFE85
:10058000FFF734FE47F6FF70FFF712FEFFF72EFE6F
:1005900001210220FFF7D0FDFFF728FE4FF40033C2
:1005A000029300258DF80C5008238DF80D3001249E
:1005B0008DF80E400DEB030002F0F2FA29238DF8BE
:1005C00004308DF805408DF806508DF8074001A8DD
:1005D00003F03CFC05B030BDFFF710FED8E708B5CE
:1005E00000F092F900F0A0FAFFF7F2FDFFF7FEFD30
:1005F000012008BD10B50446FFF7CCFDFFF7F6FD5E
:1006000004F052FCC4F38F110920FFF777FFFFF7C6
:10061000E6FF10BD08B540210A4800F029FB022082
:10062000FFF7FAFD00B908BD00F030FAFFF7DEFD74
:100630000220FFF703FEFFF7D9FD4FF4003002F070
:10064000F5FAF0E70008014082B0344B1A6842F036
:1006500001021A605968324A0A405A601A6822F048
:10066000847222F480321A601A6822F480221A609E
:100670005A6822F4FE025A604FF41F029A60002268
:10068000DA62009201921A6842F480321A601A46C5
:10069000136803F400330193009B01330093019B23
:1006A0001BB9009BB3F5A06FF2D11C4B1B6813F470
:1006B000003F14BF012300230193019B012B05D0B0
:1006C0004FF00062174B9A6002B07047134B5A68A4
:1006D0005A605A685A605A685A605A6822F47C1202
:1006E0005A605A6842F498125A601A6842F080724E
:1006F0001A601A46136813F0007FFBD0074B5A6844
:1007000022F003025A605A6842F002025A601A4606
:10071000536803F00C03082BFAD1D1E70010024014
:100720000000FFF800ED00E008B501233C22044979
:100730000448FFF788FE044802F0D2F808BD00BF65
:10074000A41D002000C800089C53000810B51D4CD3
:100750003C220021204604F0D3FD44F23C132380C8
:10076000F123A3700223E3702F23A372302363725B
:100770001023E3721E2384F83430012384F83830C8
:100780004FF4165104F10C0002F030FC4FF41651F6
:1007900004F1140002F02AFC4FF4165104F11C007D
:1007A00002F024FC4FF4165104F1240002F01EFC68
:1007B0004FF4165104F12C0002F018FCFFF7B4FFBF
:1007C00010BD00BFA41D00208378F12B01D00020B4
:1007D000704790F8380001288CBF00200120704736
:1007E00008B5028844F23C139A4204D00322134B0A
:1007F0001A70002008BD8378013BDBB2F62B09D8C4
:10080000C378013BDBB2012B09D905220B4B1A70CF
:10081000002008BD0422094B1A70002008BD037A8D
:10082000012B04D90622054B1A70002008BD0C309C
:1008300002F0ACFB003018BF012008BDCE0600203E
:100840002DE9F04104468846194802F049F820464F
:10085000FFF7C6FF034648B10122164B1A703C222F
:100860001549204604F0A6FC18B901231846BDE836
:10087000F0812546104F30343E4628686968AA68E2
:10088000EB680FC610353746A542F5D12868696870
:10089000AA6807C7FFF748FF0222064B1A70B8F193
:1008A000010F01D00123E1E7FFF7B0FD0123DDE7F0
:1008B000B8530008CE060020A41D002008B53C2235
:1008C00003490448FFF7B0FD034802F009F808BDEA
:1008D000A41D002000C80008D453000810B5084823
:1008E00001F0FEFFFFF7EAFF0648FFF779FF10B1BE
:1008F0000124204610BD0446FFF728FFF9E700BF9A
:10090000F0530008A41D002005490B8B9BB2888B77
:1009100080B20A8B92B29342F7D140EA034070470B
:10092000002800404170090A01707047C1700B0A2D
:1009300083700B0C4370090E017070470170090A37
:100940004170704701700B0A43700B0C8370090EE5
:10095000C1707047027843781B0403EB0263C278CE
:100960001344807803EB00207047C27883781B041F
:1009700003EB026302781344407803EB00207047D6
:100980000378407800EB032080B27047437800780A
:1009900000EB032080B270472DE9F04190464708F4
:1009A0004E08FFF7B1FFB74204D2B6FBF7F307FBDF
:1009B0001366B6B22B4B5B7D9BB12B490122D3B2A0
:1009C00096460D464C7D7CB10133DBB201321831C5
:1009D000062AF4D1062B42D0FFF701FE287DBDE8A0
:1009E000F081204D4FF0000E1E490EEB4E0201EB40
:1009F000C2028024547591F89020013212F0FF0257
:100A000011BF81F890200121164A82F89010400809
:100A1000144A92F890400EEB4E0102EBC10214759D
:100A20009780D6803146B04210D20E4A4FEA4E002F
:100A300000EB0E06F60097199151C7F808803C7438
:100A40004900F960864402217975C3E7BFB23918BD
:100A5000801BB0FBF7F207FB1200091AE5E7002044
:100A6000BDE8F081A0040020B8040020064B00225D
:100A70005A7583F82D2083F8452083F85D2083F88C
:100A8000752083F88D207047A00400202DE9F047E1
:100A9000244ED6F8947006F10804983600214FF0E1
:100AA00080094FF0020A4FF0010806E054F8083CB4
:100AB0009F4225D21834B4422DD0637B03F0FD024F
:100AC000012AF3D0022BF5D154F8083C9F42F1D310
:100AD00084F80D905B006360204600F0E7FC34F87A
:100AE000040C3A1834F8023CFB1AB3FBF0F100FB9B
:100AF0001133D31A44F8083C84F80DA04146D9E7D5
:100B000084F80D905B006360204600F0CFFC00236A
:100B100063734146CEE709B9BDE8F087FFF75FFD93
:100B2000FAE700BFA004002010B440080D4B03F109
:100B300090044FF0FF3202E01833A34208D0597DF1
:100B40000029F9D019688A4228BF0A469042F3D397
:100B5000B2F1FF3F1DBF034BC3F8942050000020AB
:100B600010BC7047A0040020014B1860704700BF04
:100B700020000E42014B1860704700BFA0000E42DB
:100B80000A4A136823F0030318431060084A1369E4
:100B900043F004031361012906D020BF044A1369FE
:100BA00023F004031361704730BFF7E70070004083
:100BB00000ED00E0F0B5CB7803F00F0713F0100F55
:100BC0001CBF8B781F430B78FBB1056800230126FF
:100BD0004FF00F0C03E042610133082B14D006FAEA
:100BE00003F20C8832EA0404F6D19C000CFA04FEED
:100BF00025EA0E0507FA04F42543CC78282CEAD020
:100C0000482C08BF0261E7E705600B88FF2B22D95B
:100C10004668002208234FF0010E4FF00F0C03E04E
:100C200001330432102B15D00EFA03F40D8834EA88
:100C30000505F5D10CFA02F526EA050607FA02F5D4
:100C40002E43CD78282D08BF4461CD78482D08BFAC
:100C50000461E5E74660F0BD8368194214BF0120D6
:100C600000207047C368194214BF0120002070475C
:100C7000016170474161704730B40028184BB4BF20
:100C8000DB695B6882B200F44014B4F5401F16D0F3
:100C900010F4801F1BD0C0F303450324AC4023EAAB
:100CA000040343F0706319B1410D09018A401343F5
:100CB00000280B4AB4BFD361536030BC704723F0A7
:100CC0007063074D6C6824F070646C60EBE7440D52
:100CD000240102FA04F423EA040343F07063E2E718
:100CE0000000014010B584B00121084601F030FF3A
:100CF0004FF4FA53ADF804301023ADF8063040F24B
:100D0000E733ADF808300024ADF80A4001A94FF0F0
:100D10008040FFF79DFA012211464FF08040FFF717
:100D2000F5FA21464FF08040FFF7E2FA1C238DF8D8
:100D300000308DF801408DF8024001238DF803301A
:100D4000684603F083F84FF08052024B1A6004B0FB
:100D500010BD00BF00E100E008B501214FF0804068
:100D6000FFF7E0FA00B908BD01214FF08040FFF71E
:100D7000E5FA00214FF08040FFF7BAFA0022014B5C
:100D80001A70F0E7BC06002030B585B001210220C2
:100D900001F0DEFE4FF4FA53ADF804301023ADF845
:100DA000063040F2E733ADF808300024ADF80A40D1
:100DB000104D01A92846FFF74BFA0122114628469B
:100DC000FFF7A4FA21462846FFF792FA1D238DF873
:100DD00000308DF801408DF8024001238DF803307A
:100DE000684603F033F84FF00052034B1A6005B029
:100DF00030BD00BF0004004000E100E008B5012163
:100E00000D48FFF78FFA68B10C4B1B88402B0AD8AE
:100E100001210B4A11700B44084A13800121064836
:100E2000FFF78CFA08BD0021054B1970034B1980A0
:100E30000148FFF75DFAF1E700040040C406002016
:100E4000C606002030B585B00121042001F080FEE7
:100E50004FF4FA53ADF804300024ADF8064040F2E8
:100E6000E733ADF80830ADF80A40104D01A9284627
:100E7000FFF7EEF9012211462846FFF747FA21460F
:100E80002846FFF735FA1E238DF800308DF8014013
:100E90008DF8024001238DF80330684602F0D6FF3A
:100EA0004FF08042024B1A6005B030BD0008004090
:100EB00000E100E008B501210C48FFF733FA00B962
:100EC00008BD01210948FFF739FA094A13780133AF
:100ED0001370084A13780133DBB213700F2BEFD96C
:100EE00003F0E2FF0022034B1A70E9E7000800401C
:100EF000C81B0020C306002030B585B0012120208A
:100F000001F026FE4FF4FA53ADF804300024ADF89A
:100F1000064041F28733ADF80830ADF80A400E4D77
:100F200001A92846FFF794F9012211462846FFF748
:100F3000EDF937238DF800308DF801408DF802402F
:100F400001238DF80330684602F080FF4FF4000261
:100F5000024B5A6005B030BD0014004000E100E0D3
:100F600010B501210F48FFF7DDF900B910BD0D4C98
:100F700001212046FFF7E2F9FFF702F901460A488E
:100F800001F0AEFC00212046FFF7B2F9074B1B68C9
:100F9000002BEBD0054C204600F088FA002323609C
:100FA000E4E700BF001400400C5400081C1C0020A3
:100FB00010B50C4603F078FFC4F38F110920FFF73A
:100FC0009DFAFFF7DDF8044AD3789278014603488A
:100FD00001F086FC10BD00BFA41D002024540008B1
:100FE00008B5012140F20710FFF78EFAFFF79AFAD1
:100FF000002211460120FFF7B7F94FF4407002F0CC
:101000001BFF03F019FFFFF79DF903F0D7FD02F076
:10101000AFF800F02BFAFFF729FDFFF75FFCFFF7B1
:1010200092FA1D4802F0BEF91C4802F0B1FC1C48BF
:1010300002F0D0FA1B4802F079FD1B4A002114206F
:10104000FFF7AAFC0020FFF795FD184C204602F0A0
:1010500053F904F1080002F057FC04F1100002F00B
:10106000EFFD04F1180002F055FA04F1200002F03F
:1010700017FDFFF785F814F8093C14F80A2C01460F
:101080000B4801F02DFC00F05FFE00F0FBF903F0CF
:1010900069FEFFF78FF9F8E7D1120008453F000815
:1010A00091380008F1430008B10F0008B01D00207E
:1010B0005054000800B585B0002302930393054BFC
:1010C00001938DF80C0001A800F0F0F905B05DF86F
:1010D00004FB00BF29130008044BDB78012B0CBF75
:1010E00002220122014BDA70704700BFA41D0020CC
:1010F0002DE9F043C1B08146884616461D466BB3C4
:101100004AB34FF480720021684604F0F9F8AFB298
:101110007C1D1D4B9B788DF800308DF801908DF86B
:1011200002802A4631460DF1030004F073F8F91CE1
:10113000684601F00DFF0DEB040303F8020C000AF2
:1011400003F8010C2A462146104801F0C9FB21464C
:10115000684602F033F941B0BDE8F0834FF4807285
:101160000021684604F0CCF8074B9B788DF80030DE
:101170008DF801908DF8028016B905240027D6E776
:1011800005240027CDE700BFA41D002070540008EF
:1011900030B583B08DF8000078B90DF1010302A9D4
:1011A000002203F8012B8B42FBD108236A46012160
:1011B0000846FFF79DFF03B030BD104B9D882A0AFB
:1011C0008DF801208DF802501869044603F0CCFF19
:1011D000642202FB00F22946094801F081FB8DF8E8
:1011E0000340C4F307238DF80430C4F307438DF89C
:1011F0000530C4F307648DF80640D6E7CC1B002009
:101200008C54000870B504230A460021FFF770FFD4
:101210000A240126064D304600F02AFC287810B931
:10122000013CF8D170BD0022014B1A70012070BD45
:10123000BD06002010B582B00446FEF7A1FF009065
:10124000054BDB788DF8043005236A4601212046E2
:10125000FFF74EFF02B010BDA41D002010B50328FB
:1012600004D8DFE800F0020A1D2B01B110BDFEF723
:1012700087FF0020FFF7DEFF10BD69B143B10021F9
:10128000114C505C60540131C9B288B29842F8D315
:1012900001220E4B1A7010BD0120FFF70BFF10BD8D
:1012A00041B11379022BE1D1FFF716FF0122074B61
:1012B0001A7010BD0220FFF7FDFE10BD0029D5D128
:1012C0000320FFF7F7FED1E7381C0020BD06002001
:1012D000042904D90278114B9B789A4200D07047B8
:1012E00070B50C460546431813F8012C13F8026C30
:1012F00046EA0226023989B201F02AFE864200D06F
:1013000070BDE31E9BB2EA1CA9786878FFF7A6FFC0
:101310000023034A1370034A1370F1E7A41D002051
:10132000C0060020BE06002008B5012802D0022811
:1013300005D008BD00F0BEFBFFF72AFF08BDFFF790
:10134000CBFE0220FFF776FF08BD00230370437039
:101350008370C37070470023037043708370C37041
:101360007047000010B582B00446FEF709FF206008
:101370003A4AD3682371C3F307216171C3F307416C
:10138000A1711B0EE3719388190A217263721369AC
:10139000A372C3F30721E172C3F3074121731B0E4C
:1013A00063735369A373C3F30722E273C3F3074262
:1013B00022741B0E63742A4AD368A374C3F30721F3
:1013C000E174C3F3074121751B0E63759388190AF5
:1013D000A175E37513692376C3F307216176C3F31F
:1013E0000741A1761B0EE37653692377C3F30722E7
:1013F0006277C3F30742A2771B0EE377194AD368DB
:1014000084F82030C3F3072184F82110C3F3074187
:1014100084F822101B0E84F823309388190A84F86C
:10142000241084F82530136984F82630C3F307228A
:1014300084F82720C3F3074284F82820C3F3076306
:1014400084F829300848C37884F82A30FFF7BCF9BB
:1014500008B102B010BDFFF731FAFAE7601C0020B6
:10146000941B0020CC1B0020A41D00200023044955
:101470001A465A500C33B3F5C07FFAD1704700BFFB
:101480003805002070B5084C04F5C075002602E050
:101490000C34AC4207D02368002BF9D06168207A65
:1014A00098472660F4E770BD3805002070B40E4BF5
:1014B0001B685BB10C4B03F5BA7501221446D96861
:1014C00029B101320C33AB42F8D10BE0002406689D
:1014D000054B6200111989005D185E50017A29726E
:1014E0004168696070BC70473805002008B520214C
:1014F0000648FFF7B7FB20B920210448FFF7B8FBE7
:1015000008BD20210148FFF7B5FB08BD00080140D8
:101510002DE9F04182B003258DF806500126ADF883
:1015200004604FF014088DF807801F4F01A938465A
:10153000FFF740FBADF804508DF807801B4C01A964
:101540002046FFF737FB31462046FFF793FB022189
:101550002046FFF78FFB31462046FFF78BFB022129
:101560002046FFF787FB8DF80650ADF80460102683
:101570008DF8076001A93846FFF71CFBADF8045051
:101580008DF8076001A92046FFF714FB8DF806507F
:101590008023ADF804308DF8078001A93846FFF7A5
:1015A00009FB02B0BDE8F08100080140000C0140D9
:1015B00000B58DB0154BDB78022B16D0144B1B7881
:1015C000022B02D80133124A1370114B19780129EA
:1015D00008D9104801F084F90F4B1B787BB1012228
:1015E0000D4B1A700DB05DF804FB01A8FFF7BAFEB1
:1015F0002C2301AA00210846FFF77AFDDEE7074801
:1016000001F06EF90022024B1A70E8E7A41D0020D9
:10161000C0060020D0540008BE060020F854000880
:1016200038B505460C4601210348FEF761FE034B21
:101630001D601C7238BD00BF001400401C1C00203F
:10164000044B1B6802781B789A420CBF014B024B7B
:10165000186070475C0400205804002010B5044650
:10166000FEF78EFD0B4AD06093885380A178E37813
:1016700043EA0123938013F0020F12BF01210021DE
:10168000044A917113F0040F14BF01220022014B90
:10169000DA7110BDCC1B00204279002362F317439E
:1016A000027962F31F63C27862F30703827862F300
:1016B0000F23014A13617047CC1B0020124B1B689B
:1016C0005A69124B1344124A934201D900207047C1
:1016D00010B50446FEF754FD0B4B1B685B69C01A3E
:1016E0000C4B93F83430B0EB830F0AD924B10922A4
:1016F000094B1A80012010BD0922084B1A800120D5
:1017000010BD002010BD00BF5C040020C63039A20F
:10171000C43039A2A41D0020E4060020E606002003
:1017200010B50E4C23680E4A92F8372019690D48FF
:1017300001F0D6F823689B79012B01D0002010BD61
:10174000FEF71EFD23681B69C01A054B93F837305E
:10175000984294BF0020012010BD00BF5C0400200F
:10176000A41D00200455000808B5054B013BFDD120
:10177000044B1988044B1868FFF76EFA08BD00BFC8
:10178000A08601005004002054040020084B93F868
:10179000363033B1074A084B1A60084A084B1A60C2
:1017A0007047064A044B1A60024A054B1A6070479C
:1017B000A41D0020941B00205C040020601C00205D
:1017C0005804002010B584B0FFF7E0FF074B1B78EA
:1017D0000BB104B010BD064C237004A8054B40F8B3
:1017E0000C3DFFF763FE01232370F2E7C9060020DA
:1017F000281C0020CD23000810B40E4A0E48C37ADE
:10180000137000235372137201219171D3714FF041
:10181000FF31D160094A847A147093711372D371C5
:10182000D160074A407A107093711372D371D160FE
:1018300010BC7047CC1B0020A41D0020601C0020A1
:10184000941B002070B504460F4D00232B7001211E
:101850000E48FEF74DFD2B78A3420BD20C4B1B78A4
:1018600043B90B4EFFF742FE2B78A34202D23378E6
:10187000002BF7D000210548FEF73AFD4FF47A73AC
:10188000013BFDD170BD00BFC81B00200008004017
:10189000351C00202DE9F04FC3B006460C4690469B
:1018A00099469DF834719DF8385100234193419A2F
:1018B0002F4B9A4206DC1A46419B01334193419BD0
:1018C0009342F9DD03F0F0FA2A4B1E705C709DF92B
:1018D00030211A71002199704FF4807201A803F031
:1018E0000FFD1FFA89FB0BF1040A8DF804608DF8D7
:1018F0000540B8F1000F05D04A4641460DF10600FB
:1019000003F088FC0BF1020101A801F021FB01ABFF
:10191000534403F8020C000A03F8010C0022164B92
:101920001A70164B9B78B3B17E1EF6B277B10024C5
:10193000114F514601A801F059FE2846FFF782FFDA
:10194000A64203D001343B78002BF2D00A4B187822
:1019500043B0BDE8F08F1146094800F0C1FF7E1E7C
:10196000F6B2002FF2D0044B1B78002BDFD0EDE74E
:101970001FA107008C1B0020351C0020A41D002087
:10198000D859000838B50E4C01212170C0EB401326
:1019900000EB8303DB009BB24FF080408385FEF7B2
:1019A000A7FC237853B1074B1B783BB9054DFFF7D4
:1019B0009DFD237813B12B78002BF8D038BD00BFE4
:1019C000BC060020351C00202DE9F047C0B0804641
:1019D0000F4691469A469DF8246103F065FA224B22
:1019E00083F800805F709DF920211A7100219970A1
:1019F0004FF48072684603F083FC1FFA8AF4251DB9
:101A00008DF800808DF80170B9F1000F05D05246B5
:101A100049460DF1020003F0FDFBA11C684601F0F0
:101A200097FA0DEB050303F8020C000A03F8010C0A
:101A300000220E4B1A70741EE4B27EB101261F46BE
:101A40002946684601F0B0FF3046FFF79BFF013C96
:101A5000E4B2FF2C02D03B78002BF1D0034B187876
:101A600040B0BDE8F08700BF8C1B0020351C002073
:101A700038B504460C4D00232B700C4A137001211D
:101A80000B48FEF735FC2B78A34204D2FFF72EFD5E
:101A90002B78A342FAD300210548FEF729FC4FF426
:101AA0007A73013BFDD138BDC81B0020C30600205E
:101AB0000008004030B587B0424B18680590424B93
:101AC00093F83530022B1AD0404B1878012302933B
:101AD000032301934FF0FF330093042305AA194613
:101AE000FFF772FF034640BB374A92F83540012C9E
:101AF00013D00521364A1180184607B030BD35484D
:101B0000042303700223437000238370324B1B783D
:101B1000C370FFF7A3FD0123EEE72F4A1278FF2AD7
:101B2000EAD02C48042303700223437000238370FF
:101B3000C270FFF793FD2346DEE72648FFF78EFDD0
:101B4000FF22254B1A70214C002323610120FFF74F
:101B50008FFF224B186804902078012302930323FF
:101B600001934FF0FF330093042304AA1946FFF7B3
:101B70002BFF034618B90521154A1180BCE7134C09
:101B8000002323611348FFF787FDA388E268144907
:101B9000022000F0B3FE2569284603F0E5FA04466A
:101BA0001049284603F090F903F0DEFA6FF0630362
:101BB00003FB040322460C49022000F09FFE012390
:101BC0009AE700BFB4540008A41D0020CC1B0020DD
:101BD000E6060020741D00204C040020B8540008C4
:101BE000745500080000C8429855000830B583B00D
:101BF000FFF760FF0446284D286903F0B5FA642317
:101C000003FB00F3AA882146244800F069FE002C5B
:101C100040D1234B1B7813B1204603B030BD68463A
:101C2000FFF793FB69460120FFF7ECFA0028F3D099
:101C30001C4B1B7823B901221B4B83F83520EBE7A3
:101C400004238DF8043002238DF80530154C637899
:101C50008DF80630A3788DF8073001A8FFF7FEFC59
:101C6000A379002063F31F60637963F3174023793E
:101C700063F30F20E37863F30700074C206103F060
:101C800073FA642202FB00F2A188084800F028FEE3
:101C90000124C1E70124BFE7CC1B0020B455000894
:101CA000BE060020381C0020A41D00208C54000813
:101CB00010B50949022000F021FE084C02212046FF
:101CC000FEF7D6FF0220FFF7D3FE02212046FEF7E3
:101CD000D1FFFFF749FD10BDE0550008000C0140A1
:101CE00070B5174D2E68082003F096F804460420BE
:101CF00003F092F840EA044030612D68102003F0B0
:101D00008BF804460C2003F087F840EA0440686131
:101D10000C4D2E68182003F07FF80446142003F0C1
:101D20007BF840EA044030612D68202003F074F80D
:101D300004461C2003F070F840EA0440686170BD5E
:101D40005C0400205804002000B583B0FFF7E0FBDE
:101D5000FEF7C8FF00214FF08040FEF7C9FAFFF7F9
:101D600013F800211B48FEF7C3FAFFF76BF80021B8
:101D70001948FEF7BDFAFFF7BFF800211748FEF734
:101D8000B7FAFFF7ADFF164B1968164B18680369D1
:101D90004A69096940690090134800F0A1FD40219B
:101DA0001248FEF767FFFFF727FDFFF781FF104A94
:101DB00002210F20FEF7F0FD0E4A01210320FEF75D
:101DC000EBFD0D4A0A212020FEF7E6FD03B05DF889
:101DD00004FB00BF00040040000800400014004065
:101DE0005C040020580400202C5600080008014024
:101DF000C5170008ED140008FD22000810B50446C0
:101E00000B4B1B6802781B789A4208D0018A142079
:101E100002F0F4FF618A182002F0F0FF10BD018A81
:101E2000042002F0EBFF618A082002F0E7FF10BDFA
:101E30005C04002010B504460B4B1B6802781B782D
:101E40009A4208D0818A1C2002F0D8FFE18A202023
:101E500002F0D4FF10BD818A0C2002F0CFFFE18A8E
:101E6000102002F0CBFF10BD5C04002038B5054601
:101E70000C46FEF785F9E060A3886380EA78AB78CA
:101E800043EA0223A38003F00603022B08D0A388B1
:101E900003F00603042B18D02046FFF7D1FB38BD12
:101EA0000023A3716269174B1344174A934203D866
:101EB0000022164B5A70EAE7FFF712FFFEF760F9AF
:101EC00060612046FFF7B6FFF2E70123A3712269A4
:101ED0000C4B13440C4A934209D80C4B5B780133EA
:101EE000DBB20A2B0AD90B22084B5A70D4E7FEF753
:101EF00047F920612046FFF781FFEEE7034A537060
:101F0000CAE700BFC63039A2C43039A2B8060020E3
:101F100010B586B0044600238DF814308DF81530C6
:101F20008DF8163010238DF81730007801210291BA
:101F3000032301934FF0FF330093042305AAFFF717
:101F4000A9FC034610B9184606B010BD2146024848
:101F5000FFF78CFF0123F6E7741D00202DE9F04107
:101F600086B00546144B186806AE46F8040D2846A0
:101F7000FFF7CEFF04244FF001080327A879C0B96A
:101F8000631E13F0FF0414D02878CDF80880019761
:101F90004FF0FF330093042332460521FFF77AFC0C
:101FA0000028EBD00520FFF763FD2846FFF7B0FFC0
:101FB000E4E706B0BDE8F081BC5400082DE9F0412B
:101FC00086B00546154B186806AE46F8040D28463F
:101FD000FFF79EFF04244FF001080327A87901288A
:101FE00018D1631E13F0FF0414D02878CDF80880B0
:101FF00001974FF0FF330093042332460521FFF78A
:1020000049FC0028EAD00520FFF732FD2846FFF7FB
:102010007FFFE3E706B0BDE8F08100BFC0540008D1
:1020200010B586B00446104B18680590207801233F
:102030000293032301934FF0FF330093042305AA77
:102040000521FFF727FC034610B9184606B010BD5E
:102050002046FFF75DFF03460028F6D0A38883F0F3
:102060004003C3F38013F0E7C454000810B586B0F2
:102070000446134B1868059020780123029303232C
:1020800001934FF0FF330093042305AA0521FFF7C6
:1020900001FC034610B9184606B010BD2046FFF7F4
:1020A00037FF03460028F6D0A38813F0200F01D194
:1020B0000023F0E72046FFF7C3FA0123EBE700BF58
:1020C000C8540008F8B50546FFF722FFAB79012B8D
:1020D0001DD02978234800F003FC2846FFF7A0FF15
:1020E000C8B1032401272846FFF7C0FF064638463B
:1020F000FFF7BEFC2EBB631E13F0FF04F3D11A489A
:1021000000F0EEFB29781948FFF78AFAF8BD0122A2
:10211000174B1A70F8BD29781448FFF781FAF8BDFB
:10212000144800F0DDFBFEF72BF828612846FFF786
:1021300065FE4FF40072104B1A8001220C4B1A708E
:10214000F8BD2846FFF70AFF0028E9D10B4800F048
:10215000C7FB02220A4B1A8029780448FFF760FA6D
:10216000F8BD00BF70560008B4560008852100086D
:10217000000000208C560008E4060020A05600084D
:10218000E60600202DE9F04106463E4B1C68237808
:1021900083421CBF3C4B1C68024621783B4800F040
:1021A0009FFB2046FFF7B4FEA379012B2BD0012023
:1021B000FFF75EFC2046FFF733FF58B303254FF0CF
:1021C00001082046FFF752FF07464046FFF750FC44
:1021D0001FB96B1E13F0FF05F3D12046FFF7BEFEBB
:1021E00070BB2B4D69782B4800F07AFB02222A4BFA
:1021F0001A806B78002B3CD1254B03225A700122A8
:102200001A70BDE8F081224B03225A7001221A7025
:10221000BDE8F0811E4D6978204800F061FB6B78C5
:1022200033B91B4B03225A7001221A70BDE8F081AA
:10223000013B6B7021781A48FFF7F2F9BDE8F08195
:10224000184800F04DFB124D03236B70FDF798FF0B
:1022500020612046FFF7D2FD4FF40072124B1A8026
:1022600032462178114800F03BFB01232B70BDE87A
:10227000F081013B6B7021780948FFF7D1F9BDE887
:10228000F08100BF5C040020580400200C570008B7
:102290000000002034570008E6060020CC56000855
:1022A000852100088C560008E40600200857000825
:1022B00010B586B00446104B1868059020780123AD
:1022C0000293032301934FF0FF330093042305AAE5
:1022D0000521FFF7DFFA034610B9184606B010BD16
:1022E0002046FFF715FE03460028F6D0A38883F0AA
:1022F0002003C3F34013F0E7CC54000808B5054BA6
:102300001B78012B00D008BD034B1868FFF700FEB7
:10231000F9E700BFC90600205C040020F8B50546B7
:102320002649022000F0EAFA0120FFF7A1FB284627
:10233000FFF776FE0346A8B1032401272846FFF7DE
:1023400095FE06463846FFF793FB1EB9631E13F051
:10235000FF04F3D12846FFF731FE28B10322184BC2
:102360001A8000231846F8BDFDF70AFF6861284669
:10237000FFF760FD4FF48072124B1A80AB8803F4B4
:10238000C053B3B1032401263046FFF771FB284642
:10239000FFF7BEFDAB8803F4C05353B1631E13F0C7
:1023A000FF04F1D1AA880849022000F0A7FA01230E
:1023B000D8E72846FFF77CFFF4E700BF685700081E
:1023C000E6060020E406002074570008574B1B78EF
:1023D00003B9704710B50022544B1A70FFF7E8F8A4
:1023E000534BDB78012B2FD05148FEF7EDF9002835
:1023F00035D04F48FEF7F4F9002833D0FFF7F6FB4D
:1024000004460120FFF734FB4A4B1868FFF780FDB4
:10241000474B93F83830012B27D0002C4ED0464B39
:102420009988012926D900293AD1414B93F83830AF
:10243000012B2DD0414B1B683E4A12689B79927943
:102440003F4800F04DFA39E03E4B1B781BB13E4B44
:102450001B78012BC8D83D4800F042FA10BDFEF7AA
:102460002DFAC6E7FEF72AFAC8E7344B1868FFF7DB
:102470004FFDD2E72F4B1B689B79012BD3D0194618
:10248000334800F02DFA2B4B1868FFF71BFE10BDE8
:10249000FFF746F920B1294B1B689A79012A1DD113
:1024A000254B99880329C5D9224B1B689B79012BA1
:1024B0001FD01F4B93F83830012B23D01D4B1B68C6
:1024C0009B7923B92046FFF7F9F800B144B32148BE
:1024D00000F006FA0122154B1A7010BD154B1B684F
:1024E00099791D4800F0FCF9144B1868FFF7EAFDD4
:1024F00010BD0121194800F0F3F90E4B1868FFF7E1
:102500000DFFD6E70D4B1B689B79012BD6D101211E
:10251000134800F0E5F9094B1868FFF7FFFECDE717
:10252000044B1868FFF7CEFD10BD00BF000000206F
:10253000A41D00205C040020CC1B002058040020B7
:1025400090580008BE060020C00600208C570008E6
:10255000E4570008D85800081058000848580008E8
:102560006C58000800B583B002AB03F8040D0121DC
:10257000184601F0D9FB03B05DF804FB10B40B78EA
:1025800053B1024602F8013B141A11F8013F002B27
:10259000F8D1204610BC70470024FAE738B504464D
:1025A0001D46501E092B15D80028D8BF002005DD78
:1025B000531E234404F8011B9C42FBD10A4BA3FB8E
:1025C0000523DB0803EB8303A5EB430330332370C0
:1025D000013038BD044BA3FB0523DB08024620462F
:1025E000FFF7DCFF0444E9E7CDCCCCCC70B5044662
:1025F000002B1ADB1D46013A092B29D8002AD8BF27
:1026000000202DDD1046264606F8011B0138002863
:10261000FADC013A22EAE272501C0444002B1FDA71
:102620002D2304F8013B01301AE05D42501E092DB4
:1026300004D8023A002AE5DC0020F1E70E4BA3FBA8
:102640000523DB085B4202462046FFF7CFFF06E08A
:102650000948A0FB0303DB082046FFF7C7FF04443B
:10266000054BA3FB0523DB0803EB8303A5EB430327
:1026700030332370013070BDCDCCCCCC70B582B07E
:1026800004461E46069D501E2B0915D10028D8BFB2
:10269000002005DD531E234404F8011B9C42FBD19E
:1026A00005F00F03092B0FD996B905F00F05573523
:1026B0002570013002B070BD0093334602462046BB
:1026C000FFF7DCFF0444EBE71D4630352570F0E7EB
:1026D00005F00F0537352570EBE72DE9F04F83B096
:1026E0000F46064608B10021017000254FF0010A8F
:1026F000A8464FF030094CE05178252938D03029D0
:1027000019BF541C2021941C494694F800E0AEF1F6
:102710003002D2B2092A30D8424602EB82020EEBD6
:102720004202303A02F0FF0214F801EFAEF130003D
:10273000C0B20928F1D9501987423CBF7A1BD2B2E6
:10274000AEF1580EBEF1200F64D8DFE80EF03F6303
:1027500063636363636363636351186363636318F1
:1027600063636363636363636349632D636335001A
:1027700031700232013501360BE04246DBE703F1EE
:10278000040B1B683046FFF731FF5B46621C0644B2
:102790000544117889B3BD4234D22529ACD0013229
:1027A000317001350136F4E703F1040B1B68304644
:1027B000FFF7F4FE5B46E9E703F1040B1B680093A7
:1027C00043463046FFF75AFF5B46DFE703F1040B51
:1027D0001B68009353463046FFF750FF5B46D5E732
:1027E00003F1040B19683046FFF7C8FE5B46CDE7DE
:1027F0001A68327004335046C8E7AF4202D900234A
:10280000337003E0002306F8013C013D284603B085
:10281000BDE8F08F4FF0FF35F8E708B513460A46DC
:102820006421FFF75AFF08BD084B1B689A688A426B
:1028300002D0DB68994206D110B50446C0B2FFF75A
:1028400091FE204610BD4FF0FF3070470800002079
:1028500070B50446007870B10E4600253146FFF78A
:10286000E3FFB0F1FF3F07D0013514F8010F002856
:10287000F4D1284670BD002070BD0000F0B5A3B0B3
:1028800006460F4696466C460D4D0FCD0FC40FCD34
:102890000FC42B6823607246394609A8FFF7BDFFB5
:1028A000632806DD074B1B68D9686846FFF7D0FF31
:1028B000FEE7314609A8FFF7CBFF23B0F0BD00BF0C
:1028C000EC5800080800002008B5044B1B680A46B5
:1028D00001469868FFF7D2FF08BD00BF080000203E
:1028E0000FB400B583B004A951F8040B0191FFF7B0
:1028F000EBFF03B05DF804EB04B070470EB400B515
:1029000082B0084B1B78834205D8002002B05DF8E6
:1029100004EB03B0704704A901910398FFF7D4FFBB
:10292000F4E700BFCD0600200E4B1A6842F001020A
:102930001A6059680C4A0A405A601A6822F0847278
:1029400022F480321A601A6822F480221A605A68CF
:1029500022F4FE025A604FF41F029A600022DA62EB
:10296000704700BF001002400000FFF80D4B1A68CE
:1029700022F480321A601A6822F480221A60B0F5BC
:10298000803F03D0B0F5802F06D07047054A13680A
:1029900043F4803313607047024A136843F4A02362
:1029A0001360704700100240014B1860704700BF71
:1029B00000004242014B1860704700BF6000424275
:1029C000034A536823F0030318435060704700BF65
:1029D00000100240034A536823F0F003184350608C
:1029E000704700BF00100240034A536823F4E063BD
:1029F00018435060704700BF00100240034A5368FC
:102A000023F4605343EAC000506070470010024056
:102A1000034A536823F4404318435060704700BF93
:102A200000100240084B00221A701A70012802D0D0
:102A3000042804D070470122034B1A707047052206
:102A4000014B1A70704700BF20100240024A136AFF
:102A500018431062704700BF00100240014B18601D
:102A6000704700BF3C04424210B4274B5B6803F040
:102A70000C03042B2BD0082B2CD013B1234B036059
:102A800001E0224B0360204C6368C3F30313204A28
:102A9000D35CD9B20368CB4043606168C1F30221C3
:102AA000515CC9B223FA01F181606168C1F3C221AE
:102AB000515CC9B2CB40C3606168C1F381310A4443
:102AC000127CD2B2B3FBF2F3036110BC70470F4B20
:102AD0000360D8E70C4A53685268C3F38343023358
:102AE00012F4803F04D10B4A02FB03F30360CAE7F0
:102AF000054AD26A02F00F0201320449B1FBF2F238
:102B000003FB02F30360BEE70010024000127A00EC
:102B10003804002000093D0029B9054A536923EA19
:102B2000000050617047024A536918435061704772
:102B30000010024029B9054A936923EA0000906118
:102B40007047024A93691843906170470010024031
:102B500029B9054AD36923EA0000D0617047024AC7
:102B6000D3691843D061704700100240014B1860D0
:102B7000704700BF400442424309012B0BD0022B97
:102B8000064B0CBF1B6A5B6A00F01F0023FA00F0C3
:102B900000F001007047014B1B68F5E70010024090
:102BA0008379002B35D010B41F4B1A68016822EAD4
:102BB00001021A605A68016822EA01025A60027929
:102BC00002F1804202F582321168046821431160EB
:102BD0009A68016822EA01029A60DA68016822EACA
:102BE0000102DA604379102B09D003F1804303F529
:102BF00082331A6801680A431A6010BC70470A4B96
:102C00009A6801680A439A60DA6801680A43DA60E0
:102C1000F3E7037903F1804303F582331A6801680F
:102C200022EA01021A60704700040140014B58611A
:102C3000704700BF0004014010B443680A7923F4D0
:102C4000702323F4807343EA02230A68134343602A
:102C50008468CB688A681343084A224013434A7940
:102C600043EA42038360C36A23F470030A7C013A97
:102C7000D2B243EA0253C36210BC7047FDF7F1FFC2
:102C800000230360037143718360C36001230374F5
:102C9000704721B9836823F001038360704783681C
:102CA00043F001038360704721B9836823F4807384
:102CB00083607047836843F48073836070478368E0
:102CC00043F0080383607047836843F00403836024
:102CD00070478068C0F38000704770B409291CD920
:102CE000C568A1F10A0404EB44040726A64025EABE
:102CF000060503FA04F42C43C460062A19D90C2AE9
:102D000024D9C36A0D3A02EB82021F24944023EABD
:102D1000040391401943C16216E0056901EB4106C5
:102D20000724B44025EA040503FA06F42C430461A1
:102D3000E3E7436B013A02EB82021F24944023EA4B
:102D4000040391401943416370BC7047036B073A19
:102D500002EB82021F24944023EA040391401943AA
:102D60000163F1E728B9064A936823F400039360EE
:102D70007047034A936843F400039360704700BFB1
:102D80000024014030B587B004460D46038A9BB24B
:102D900023F44053CA881343038283899BB223F4EC
:102DA000B05323F00C038A8813430A8913434A89DA
:102DB00013439BB28381838A9BB223F440738A8935
:102DC0001343838201A8FFF74FFE1A4B9C420CBFAE
:102DD000049B039BA28912F4004F03EB830303EBD4
:102DE0008303296814BF49008900B3FBF1F1124B3A
:102DF000A3FB012358090501642300FB1313A289D7
:102E000012F4004F0BD11B0132330B4AA2FB0323F8
:102E1000C3F343132B439BB2238107B030BDD900CA
:102E20003231054AA2FB0131C1F3421242EA0503E5
:102E3000F1E700BF003801401F85EB5131B98389AC
:102E400023F400531B041B0C8381704783899BB2BE
:102E500043F400538381704710B4C1F3421401F06E
:102E60001F01012303FA01F19C420AD0022C0CBF7E
:102E7000103014303AB9036823EA0101016010BC34
:102E800070470C30F6E7036819430160F7E7C1F3B8
:102E90000801818070478088C0F30800704710B433
:102EA000C1F3421201F01F040123A340012A12D0F2
:102EB000022A0CBF028A828A92B21340028892B21E
:102EC0006BB1090A012303FA01F10A4214BF184643
:102ED000002010BC7047828992B21340EEE70020B8
:102EE000F7E70B0A01219940C94389B20180704775
:102EF000FEE7000008B5104B104A9A420DD2134667
:102F00000F48801A20F00300043010440D4A52F894
:102F1000041B43F8041B8342F9D10B480B494FF0C3
:102F200000028842B8BF40F8042BFADBFDF78CFBA7
:102F3000FEF756F808BD00BF9004002000000020F6
:102F40008F040020605A000890040020241E0020F6
:102F5000B9B110B40C46014604444FF6FF704AF272
:102F6000010201E0A1420FD011F8013B58400823B3
:102F700010F0010F14BF82EA50004008013BF7D166
:102F8000F0E74FF6FF70704710BC70470368B3F569
:102F9000965F0DD0B3F5165F0AD0B3F5964F07D004
:102FA000B3F5164F04D0B3F5E13F01D000207047D0
:102FB00003791B0233F4805314D143791B0233F499
:102FC000805304D0B3F5005F01D0002070478079B2
:102FD000000230F4806307D0B0F5C06F14BF00204A
:102FE00001207047002070470120704720B1016028
:102FF00000220271427182717047F0B587B00546B8
:103000000C461E461368029313791B02ADF80C3070
:1030100053791B02ADF80E3093791B02ADF81030D6
:103020000027ADF814700C23ADF8123002A9FFF799
:10303000A9FE01212846FFF701FF04F21123E360F6
:10304000A36004F1110363608DF8046002238DF81E
:1030500005308DF8067001268DF8076001A800F094
:10306000F5FE324640F225512846FFF7F5FE32467E
:1030700040F226612846FFF7EFFE237C334323749A
:1030800007B0F0BDF8B50C7C14F0010F0AD05C1E3F
:10309000A4B2B4F5007F05D2CF68FD1801F2114447
:1030A000A54200D3F8BD1D4613460C4606462A46E7
:1030B0001946384602F0AEF8E3682B44E36001227B
:1030C00040F227713046FFF7C7FEEBE738B50546FB
:1030D0000C46012240F22441FFF7BEFE2846FFF7CE
:1030E000DAFE63681870636804F2112293423CBFF1
:1030F0000133636038BD10B50C46002240F2244114
:10310000FFF7AAFE23682BB104F111006168091AC8
:1031100089B2984704F11103636010BD38B58B681C
:10312000CA68934200D338BD0C4605461978FFF7AC
:10313000AEFEA3680133A360E2689342F3D100229C
:1031400040F227712846FFF787FE04F21123E3605F
:10315000A360E8E710B5044640F22551FFF7C1FE31
:10316000012240F225512046FFF776FE10BD0000F7
:1031700008B50021034B19703C22034802F0C0F847
:1031800008BD00BF361C0020A41D0020034B044ACC
:103190005A6002F188325A60704700BF0020024036
:1031A00023016745024A136943F0800313617047A6
:1031B000002002400B4BDB6813F0010F0FD1094BCD
:1031C000DB6813F0040F01D002207047054BDB6869
:1031D00003F01003002B14BF0320042070470120CC
:1031E000704700BF0020024010B50446FFF7E2FF21
:1031F000012809D134B1FFF7DDFF013C012803D1DB
:10320000002CF8D1052010BD002C08BF052010BDF2
:1032100038B505464FF43020FFF7E6FF042800D00C
:1032200038BD0A4C236943F00203236165612369B9
:1032300043F0400323614FF43020FFF7D5FF2369AB
:1032400023F00203DB04DB0C2361E9E700200240EA
:1032500030B583B005460C46002301934FF400506F
:10326000FFF7C2FF042801D003B030BD124A136932
:1032700043F001031361A3B22B804FF40050FFF71A
:10328000B3FF042807D00C4A136923F00103DB04C1
:10329000DB0C1361E8E702350195019B240C1C80CF
:1032A0004FF40050FFF7A0FF034A136923F0010316
:1032B000DB04DB0C1361D7E70020024070B5044645
:1032C0000D464FF40050FFF78FFF042800D070BD6B
:1032D000084E336943F00103336125804FF40050F9
:1032E000FFF782FF336923F00103DB04DB0C33615A
:1032F000EDE700BF00200240F0B583B0074600288C
:1033000041D001210420FFF715FC01214FF480403A
:10331000FFF710FC4FF40073ADF8043001248DF872
:10332000064018238DF807301A4D01A92846FDF7ED
:1033300041FC4FF48063ADF804308DF8064048231B
:103340008DF8073001A92846FDF734FC4FF480764C
:10335000ADF804608DF8064010238DF8073001A900
:103360002846FDF727FC31462846FDF783FC214619
:103370002046FDF703F825233A4607490748FFF79B
:103380003CFE03B0F0BD064F4FF416513846FFF730
:103390002DFEB6E700080140EC0600200038014091
:1033A000000B0020044B1B680BB100207047024B40
:1033B00018600120704700BFEC06002038B50446B5
:1033C0000D4601210846FCF7E7FF01214FF480700C
:1033D000FCF7D4FF2B46224602490348FFF752FE72
:1033E00038BD00BFEC0600200038014010B540F2A7
:1033F00025512F48FFF753FD90B940F224412C4846
:10340000FFF74DFDF8B940F227712948FFF747FD56
:1034100060BB40F226612648FFF741FD80BB10BD2E
:10342000234C40F224412046FFF75BFD012102209E
:10343000FCF7B2FF01210846FCF7A0FF1D4920461A
:10344000FFF744FED9E71A4C40F224412046FFF72B
:1034500048FD00210220FCF79FFF00210120FCF71E
:103460008DFF14492046FFF746FECCE74FF48071EC
:103470001148FDF7FDFB0F490D48FFF74FFEC8E768
:103480000B4C40F226612046FFF72BFD0021012066
:10349000FCF782FF00214FF48070FCF76FFF4FF4C0
:1034A00080710548FDF7E6FB2046FFF753FEB6E7BF
:1034B00000380140EC0600200008014010B402680A
:1034C00022F4FF4222F070028B680C6A23430C69DD
:1034D00023434C6923438C692343CC6923434C6ABF
:1034E00023438C6A234313430360CB6843600B6818
:1034F00083604B68C36010BC704731B9036823F028
:1035000001031B041B0C03607047036843F00103B5
:1035100003607047F0B583B00746002848D001210A
:103520001020FFF707FB01214FF40020FFF710FBED
:103530004FF48063ADF8043001248DF80640182361
:103540008DF807301E4D01A92846FDF733FB4FF4D7
:103550000063ADF804308DF8064048238DF807303D
:1035600001A92846FDF726FB21461648FDF784FBF6
:103570004FF40046ADF804608DF8064010238DF836
:103580000730A5F5006501A92846FDF713FB314674
:103590002846FDF76FFB21464FF48040FCF7EEFE16
:1035A00034233A4608490948FFF727FD03B0F0BD28
:1035B000074F4FF416513846FFF718FDAFE700BF2D
:1035C0000010014000023000080B0020004C0040B9
:1035D0001C0F0020044B1B680BB100207047024BEE
:1035E00018600120704700BF080B002038B5044662
:1035F0000D4601218020FCF7CFFE01214FF4005041
:10360000FCF7BCFE2B46224602490348FFF73AFD71
:1036100038BD00BF080B0020004C004010B540F240
:1036200025513148FFF73BFC90B940F224412E4828
:10363000FFF735FC08BB40F227712B48FFF72FFC42
:1036400080BB40F226612848FFF729FCA0BB10BDD3
:10365000254C40F224412046FFF743FC01214FF462
:103660008070FCF799FE01214FF48040FCF786FE44
:103670001E492046FFF72AFDD7E71B4C40F22441A4
:103680002046FFF72EFC00214FF48070FCF784FEEB
:1036900000214FF48040FCF771FE14492046FFF7EB
:1036A0002AFDC8E74FF400411148FDF7E1FA0F4940
:1036B0000D48FFF733FDC4E70B4C40F2266120466E
:1036C000FFF70FFC00218020FCF766FE00214FF47D
:1036D0000050FCF753FE4FF400410548FDF7CAFACD
:1036E0002046FFF737FDB2E7004C0040080B0020F2
:1036F00000080140F0B59DB006460C461546002274
:103700001B921B99254A914206DC11461B9A0132F5
:103710001B921B9A8A42F9DD214A0DF1070102F141
:10372000100712F8010F01F8010FBA42F9D11D4A32
:1037300092788DF818208DF81930FF238DF81A3003
:103740008DF81B30FCF71CFD8DF81C00C0F307231F
:103750008DF81D30C0F307438DF81E30000E8DF834
:103760001F008DF8206055B1621E08AB1CA94819D6
:10377000503812F8011F03F8011F8342F9D10A4C97
:1037800026780123237005F11902D2B202A938204C
:1037900000F084FD26701DB0F0BD00BF1FA1070022
:1037A000D3060020A41D0020D00600202DE9F04102
:1037B000C0B007460C46164691F80080D5B22E4B95
:1037C0001B7863B92D4B1B785BBB2D4A1278BA422C
:1037D00009D000222A4B9A7040B0BDE8F081012345
:1037E000FFF788FFEEE7264A52784245F1D1244A96
:1037F00092F90420B2F1FF3F03D0291FC9B28A42D7
:10380000E7D101211F4A1170002EE2D01E481F4946
:10381000E25CC2540D700133DBB29AB29642F7D823
:10382000D7E7012BD8D10335EDB24FF480720021D8
:10383000684601F065FD8DF80070AE1E002E09DDB2
:10384000621E6B463046684412F8011F03F8011FE0
:103850008342F9D1A91E89B26846FFF779FB0DF8BA
:1038600006000DEB0503000A03F8010C2A46694621
:10387000342000F013FDAFE7CC060020C90600207D
:103880008C1B0020351C0020741D0020341C0020DF
:10389000F0B585B001AD04AC2B46002203F8012B36
:1038A000A342FBD191B10378FB2B11D00126054631
:1038B000431813F8012C13F8027C47EA0227023957
:1038C0008CB22146FFF744FB874215D005B0F0BD0E
:1038D0000F29FBD99DF8042043789A42F6D1431C66
:1038E00000F10C0615F8014F13F8012F9442EDD1A9
:1038F000B342F7D10D26DAE7A21B92B2A9192878B4
:10390000FFF754FFE2E7000070B582B0064678B3D7
:1039100001210420FFF70EF901214FF40030FFF7D9
:1039200017F90423ADF8043001248DF8064018235C
:103930008DF80730124D01A92846FDF73BF9082301
:10394000ADF804308DF8064048238DF8073001A902
:103950002846FDF72FF921464FF40070FCF70EFDC5
:103960002623324607490848FFF747FB02B070BDDF
:10397000064E4FF416513046FFF738FBC8E700BF3C
:1039800000080140240F00200044004038130020AC
:10399000044B1B680BB100207047024B18600120DC
:1039A000704700BF240F002038B504460D460121A2
:1039B0000820FCF7F1FC01214FF48060FCF7DEFCED
:1039C0002B46224602490348FFF75CFB38BD00BF87
:1039D000240F00200044004010B540212D48FDF781
:1039E00047F940F225512C48FFF759FA90B940F2B7
:1039F00024412948FFF753FA00BB40F227712648BB
:103A0000FFF74DFA70BB40F226612348FFF747FAF3
:103A100068BB10BD204C40F224412046FFF761FAFC
:103A200001211020FCF7B8FC01214FF40070FCF7D5
:103A3000A5FC1A492046FFF749FBD8E7164C40F28F
:103A400024412046FFF74DFA00211020FCF7A4FC8A
:103A500000214FF40070FCF791FC10492046FFF75D
:103A60004AFBCAE70D490C48FFF758FBCBE70A4C65
:103A700040F226612046FFF734FA00210820FCF7C7
:103A80008BFC00214FF48060FCF778FC2046FFF7A8
:103A900061FBBEE70008014000440040240F002005
:103AA00030B583B0054678B301212020FFF742F8F6
:103AB00001214FF48010FFF74BF84FF48053ADF81D
:103AC000043001248DF8064018238DF8073001A931
:103AD0001148FDF76FF80423ADF804308DF8064067
:103AE00048238DF8073001A90C48FDF763F82146FB
:103AF0004FF48030FCF742FC35232A460849094838
:103B0000FFF77BFA03B030BD074D4FF4165128463E
:103B1000FFF76CFAC8E700BF001001400014014035
:103B2000401300200050004054170020044B1B6835
:103B30000BB100207047024B18600120704700BF96
:103B40004013002038B504460D4601214FF40070A3
:103B5000FCF722FC01214FF40040FCF70FFC2B4640
:103B6000224602490248FFF78DFA38BD4013002073
:103B70000050004010B540F225512E48FFF78FF954
:103B800090B940F224412B48FFF789F920BB40F25D
:103B900027712848FFF783F998BB40F22661254832
:103BA000FFF77DF990BB10BD224C40F22441204626
:103BB000FFF797F901214FF48060FCF7EDFB01213D
:103BC0004FF48030FCF7DAFB05221B4B1A701B49BF
:103BD0002046FFF77BFAD4E7164C40F224412046FA
:103BE000FFF77FF900214FF48060FCF7D5FB00213F
:103BF0004FF48030FCF7C2FB10492046FFF77BFAF8
:103C0000C5E70E490B48FFF789FAC6E7094C40F2B1
:103C100026612046FFF765F900214FF40070FCF79C
:103C2000BBFB00214FF40040FCF7A8FB2046FFF748
:103C300091FAB8E700500040C10600204013002070
:103C40002DE9F04383B0814600285DD00121082092
:103C5000FEF770FF01214FF48020FEF779FF4FF44B
:103C60008063ADF8043001258DF8065018238DF8D7
:103C70000730294C01A92046FCF79CFF4FF4006750
:103C8000ADF804708DF8065048268DF8076001A93C
:103C90002046FCF78FFF4FF40053ADF804308DF849
:103CA00006508DF8076001A92046FCF783FF4FF40A
:103CB0008046ADF804608DF806504FF010088DF87E
:103CC000078001A92046FCF775FF31462046FCF726
:103CD000D1FFADF804608DF806508DF8078001A97A
:103CE0002046FCF767FF31462046FCF7C3FF294614
:103CF0003846FCF743FB27234A4608490848FFF7A4
:103D00007CF903B0BDE8F083064C4FF41651204611
:103D1000FFF76CF9A14699E7000C01405C17002001
:103D200000480040701B002038B504460D460121B4
:103D30002020FCF731FB01214FF48050FCF71EFBE3
:103D40002B46224602490348FFF79CF938BD00BFC5
:103D50005C1700200048004010B540F22551324861
:103D6000FFF79DF890B940F224412F48FFF797F8EC
:103D700018BB40F227712C48FFF791F888BB40F23E
:103D800026612948FFF78BF8A8BB10BD264C40F2EE
:103D900024412046FFF7A5F801214020FCF7FCFA5A
:103DA00001214FF40060FCF7E9FA03221F4B1A705F
:103DB0001F492046FFF78AF9D5E71B4C40F2244102
:103DC0002046FFF78EF800214020FCF7E5FA00219D
:103DD0004FF40060FCF7D2FA15492046FFF78BF943
:103DE000C7E74FF480411348FCF742FF10490E48E3
:103DF000FFF794F9C3E70C4C40F226612046FFF729
:103E000070F800212020FCF7C7FA00214FF4805001
:103E1000FCF7B4FA4FF480410648FCF72BFF20462C
:103E2000FFF798F9B1E700BF00480040C106002045
:103E30005C170020000C014040F0BF6040F40030EF
:103E4000014BD860704700BF00ED00E0C3785BB95C
:103E500003785A0903F01F03012101FA03F320320A
:103E6000114941F822307047104BDA68D243C2F34F
:103E70000222C2F1040143788B400F2121FA02F2A1
:103E800081780A40134302781B01DBB206490A44D9
:103E900082F800330378580903F01F03012202FA65
:103EA00003F341F82030704700E100E000ED00E04E
:103EB00070B586B01E4B1C78844204D000221C4B87
:103EC0009A7006B070BD0B78D6B2301FC5B21848D4
:103ED0004078984212D0072BF0D14B78154A1370D6
:103EE00006AA02F8043D01230293032101916DB259
:103EF000009507212046FDF767FDDFE70C4890F9A4
:103F00000400B0F1FF3F01D0A842E4D101200A4BE8
:103F10001870002AD2D00023084D094CC85CE85420
:103F200026700133DBB298B28242F7D8C6E700BFF1
:103F30008C1B0020CD060020351C0020741D0020A5
:103F4000341C00202DE9F04184B001AE04AC3346AE
:103F5000002203F8012BA342FBD141B30378FB2BD2
:103F600028D001270E460546431813F8012C13F8F4
:103F7000028C48EA02288C1EA4B22146FEF7E8FF14
:103F800080452BD019490220FEF7B8FC5EB12C46C3
:103F90003544174F022614F8012B39463046FEF7F8
:103FA000ADFCAC42F7D113490220FEF7A7FC04B0E8
:103FB000BDE8F0810F29FAD99DF8042043789A4290
:103FC000F5D1431C00F10C0516F8014F13F8012F31
:103FD0009442ECD1AB42F7D10D27C3E7E21B92B27A
:103FE000E9192878FFF764FFCCE700BF44590008BF
:103FF00048590008C059000800B585B00023029355
:104000000393054B01938DF80C0001A8FDF74EFAC0
:1040100005B05DF804FB00BFC54300082DE9F04F73
:1040200083B00446FCF7ACF801902070C0F307237E
:104030006370C0F30743A370000EE070DFF8508296
:1040400098F803302371FF256571DFF84892D9F89D
:1040500000301B78A371894F3B681B78E37198F897
:1040600038302372864E33786372DFF82CB2202109
:104070005846FCF7F1FD4000A07201215846FCF7BC
:10408000F1FD824602215846FCF7ECFDC00040EAF3
:10409000CA00E0727B4B1B881A0A227363737A4B47
:1040A0001B881A0AA273E373784B1B782374B8F841
:1040B00000301A0A6274A374D9F80030DA68E27426
:1040C000C2F307212175C2F307416175120EA27573
:1040D0009A88120AE2759A8822763968CA686276E6
:1040E000C2F30720A076C2F30740E076120E2277D3
:1040F0008A88120A62778A88A277F268E277C2F326
:10410000072084F82000C2F3074084F82100120E33
:1041100084F82220B288100A84F8230084F824202E
:1041200084F8255084F8265084F8275084F82850C5
:10413000326984F82920C2F3072084F82A00C2F3E8
:10414000074084F82B00C2F3076284F82C201A8BF6
:10415000120A84F82D201A8B84F82E205A8B120A0A
:1041600084F82F205A8B84F830209A8B120A84F816
:1041700031209A8B84F83220DA8B120A84F83320AB
:10418000DA8B84F834201A8C120A84F835201A8CC1
:1041900084F836205A8C120A84F837205A8C84F816
:1041A00038209A8C120A84F839209A8C84F83A20A4
:1041B000DA8C120A84F83B20DA8C84F83C201A8DC1
:1041C000120A84F83D201A8D84F83E205A8D120A76
:1041D00084F83F205A8D84F840209A8D120A84F882
:1041E00041209A8D84F84220DA8D120A84F8432007
:1041F000DA8D84F844201A8E120A84F845201A8E2B
:1042000084F846201A6984F84720C2F3072084F80E
:104210004800C2F3074084F84900120E84F84A208F
:104220005B6984F84B30C3F3072284F84C20C3F356
:10423000074284F84D201B0E84F84E300B6984F839
:104240004F30C3F3072284F85020C3F3074284F8A9
:1042500051201B0E84F852304B6984F85330C3F35D
:10426000072284F85420C3F3074284F855201B0E1C
:1042700084F8563003B0BDE8F08F00BF580400202A
:10428000CC1B0020E6060020E4060020281C0020AD
:10429000A41D00205C040020000C01402DE9F04129
:1042A000C0B007460E4615462F4B9A78D9782F484E
:1042B000FEF716FB0DB1002E46D04FF480720021A0
:1042C000684601F01DF8ACB2294B1B78002B3ED09C
:1042D000FB238DF80030DFF8A080D8F80030196893
:1042E0000DF10100FCF722FBD8F8003059680DF100
:1042F0000500FCF71BFBD8F8003099680DF10900A8
:10430000FCF714FB10340C2040AB034403F8FF7C93
:1043100036B140AB18442A463146FE3800F07AFFE9
:10432000A11E89B26846FEF713FE0DEB040303F8E5
:10433000020C000A03F8010C0E4B1B78052B0DD064
:1043400021466846FFF7F0FC40B0BDE8F081043438
:10435000054B9B788DF800300020D5E72146684654
:10436000FFF7F0FBF0E700BFA41D00205059000844
:10437000D0060020C10600207004002000B583B0E4
:1043800001A8FCF7E8FF01A90220FCF73BFF98B168
:104390000B4BDB78022B0CBF002301238DF8003080
:1043A000074BDB788DF80130022269463A20FFF78F
:1043B00075FF03B05DF804FB00238DF80030EFE7D4
:1043C000A41D00203A2800D0704708B5FFF7D6FF9B
:1043D00008BD00B583B002AB03F8041D01221946E5
:1043E00040F08000FFF75AFF03B05DF804FB0000C7
:1043F000F0B585B004460D46304B9A78D9783048F0
:10440000FEF76EFA032D48D923782C4A92789A4207
:1044100045D0FB2B3DD10F2D3FD92A4E336819686B
:1044200001A8FCF783FA3368596802A8FCF77EFA02
:104430003368996803A8FCF779FA9DF8042063783B
:104440009A422AD101AA631C04F10C0612F8010F4A
:1044500013F8011F884220D1B342F7D10D272378EA
:10446000FB2B14BF00230123174A1370631913F8A1
:10447000012C13F8026C46EA0226A91E89B22046D6
:10448000FEF766FD86420CD0FF210846FFF7A1FF2C
:1044900003E029462046FFF7A9F805B0F0BD012743
:1044A000DDE70A4B0193BB1CED1A02953C44084B17
:1044B0001C6001A8FCF7FAFFEFE700BFA41D002075
:1044C0008459000870040020D0060020D54400085C
:1044D000E01D00209D4B1B7803B970472DE9F04F7C
:1044E000E5B00C460022994B1A70994B1F68994D04
:1044F000A9789948FEF7F4F92846FCF765F930B138
:1045000044B90122914B1A7065B0BDE8F08FFCF7F9
:10451000D5F9F5E7B522002127A800F0F1FE611ECC
:104520008CB23B78322B00F0198115D9602B00F04A
:104530008C81612B00F0A2813A2B40F0BC81854B2D
:10454000DB78022B00F01B838DF89D30022227A917
:104550003878FFF7A3FEAEE1032B22D0102B40F0FA
:10456000AA81042C40F206837878BA7842EA0023C4
:104570001D460493F9783B7943EA012BC5F57F4347
:10458000FF335B45C0F2A181BBF1B40F00F2A28101
:10459000211F8B4500F0A38104211020FFF719FF94
:1045A00089E1042C04D003210846FFF712FF82E1C1
:1045B0007B7897F8028048EA0328FA783B7943EA47
:1045C00002231BB29EB2C8F57F42FF32B2420CDB1F
:1045D000B42E00F2B580DBB201930DF5C87A0AF86B
:1045E000F43D4FF000094C4636E002210320FFF76E
:1045F000F0FE0122554B1A7086E7B1F5005F00F01E
:10460000C582B1F5085F00F0C18201220021212599
:1046100034E0D1B16B1E2B2B1ED8DFE803F04540F0
:104620001D371D1D1D1D1D3B1D1A1D1D1D1D771D2B
:104630001D641D1D1D1D1D1D1D641D1D1D1D5E599F
:104640001D4F1D1D1D1D1D541D4A584600F058FECE
:1046500002E05846FCF76AF9A1B28E4260D9B9F17E
:10466000000F68D1601C0AEB000B414489B23B2962
:10467000C3D8384B1944212505F005021444E4B28F
:10468000A3B29E42C5D24FF00909E5E75846FCF7B0
:1046900059F9E1E789B25846FCF744F9DCE789B2F9
:1046A0005846FCF74BF9D7E764AB184400F8F41C04
:1046B000D2E709685846FCF739F9CDE7096858464A
:1046C000FCF740F9C8E709885846FCF72BF9C3E71F
:1046D00009885846FCF732F9BEE764AB18440B78FA
:1046E00000F8F43CB8E7012918BF002106D015F006
:1046F000080F07D05846FCF719F9ADE7FCF704F9A5
:104700000146F4E75846FCF71DF9A5E7402906BF26
:10471000104BDB78002364AA104400F8F43C9BE7BC
:10472000B9F1000F07D1019A0132D2B227A9387826
:10473000FFF7B4FDBFE049463878FFF74AFEBAE01C
:1047400020210320FFF745FEB5E000BF8C040020C8
:10475000E01D0020A41D0020C45900080222B34B14
:104760001A700022B24B1A8097F81480FD7CBE7C30
:1047700097F81190FBF704FDAE4B984251D9AB4B23
:104780001B78012B5CD90D2C55D938460DF15F03F0
:104790000DF16F04002110F8012F03F8012FFF2AFB
:1047A00018BF01219C42F6D131B1A34D18AC0FCCFA
:1047B00028606960AA60EB60797DFF2928D09F4B53
:1047C00019709F4C84F835100A469E48FEF788F809
:1047D00094F83530E3B1BA7D9B4B1A70FA7D002313
:1047E00062F307033A7E62F30F237A7E62F3174384
:1047F000BA7E62F31F63954A1361397F7B7F1B0486
:1048000043EA0123F97E0B43B97F43EA0163D36096
:1048100027A8FFF703FC572227A93878FFF73EFDAA
:1048200049E0280440EA086040EA090040EA06201E
:10483000FBF7E0FEA3E703213878FFF7CAFD3AE073
:104840003C213878FFF7C5FD35E0032C04D0032167
:104850006020FFF7BEFD2EE027AC794D0FCD0FC4D1
:104860000FCD0FC40FCD0FC495E8070084E80700F3
:104870003C2227A93878FFF711FD1CE055AC7D1CC0
:104880000FCD0FC40FCD0FC40FCD0FC495E8070097
:1048900084E807006E4C00252570012155A8FBF720
:1048A000CFFF8DF89C5023788DF89D30022227A9E8
:1048B0003878FFF7F3FC6248FBF786FF002800F02A
:1048C00062810122634B1A701EE602211020FFF75D
:1048D00080FDF0E720211020FFF77BFDEBE78DF84E
:1048E00020008DF82120002609964FF0FF330A930F
:1048F00018AC534D0FCD0FC40FCD0FC40FCD0FC447
:1049000095E8070084E807000296019632460123E5
:1049100006930797A1E0454B1B78012B40F23981A4
:10492000BAF1FF0F09D818AB9A44029B43F0010378
:1049300002934FF00109069DA6E0BAF5085F0DD07D
:1049400043F6FC739A4513D0BAF5005F06D00123F5
:1049500003934FF0000A069DA94698E0029B43F09E
:10496000040302930DF1280A4FF001090C258BE096
:10497000029B43F4004302930DF1240A4FF0010916
:104980000C2581E0B9F1000F00F091800532079B02
:104990009E18B04637460024013D11E0039A0021DD
:1049A000504600F0ADFC04E04046FBF7D3FF4AF868
:1049B0002400013408F104080237E3B24B454BD21E
:1049C000002EEBD00B2DF4D801A353F825F000BF37
:1049D000254A0008194A0008B3490008014A00089E
:1049E000B3490008B3490008B3490008B3490008B7
:1049F000B34900080D4A0008B3490008A949000856
:104A00004046FBF7B2FF4AF82400D2E73846FBF7EE
:104A1000B7FF2AF81400CCE73846FBF7B7FF2AF8AF
:104A20001400C6E7335D0AF80430C2E7361C0020E4
:104A3000881B0020C3A9835DD40600204D040020FC
:104A4000A41D0020FC5900084C040020CC1B0020B1
:104A5000CE0600208C040020059A93B29B4530D9E5
:104A6000019941BB049901EB030A1FFA8AFABAF5CE
:104A7000806F7FF450AF029B43F0020302930DF16D
:104A80002C0A4FF01809012505F005030393019B3B
:104A9000002BE2D1039B03FB0923DBB205939BB2FE
:104AA0009B45BFF46FAF059A09230193D5E7CDF875
:104AB0000490059AD1E7079F01993878FFF789FCA0
:104AC000F9E6079F019B002BF6D1029B13F0020F22
:104AD00010D011AC334D0FCD0FC495E8070003C4BF
:104AE000227018220BA911A800F064FBA8B90222B9
:104AF0002D4B1A70029B13F0040F26D1029B13F06A
:104B0000010F32D159460DF12200FBF70BFF0422B1
:104B100008A93878FFF7C2FBCDE6002316938DF87D
:104B20005C3011AC214D0FCD0FC42B6823601822CF
:104B30000BA911A800F03EFB18B901221A4B1A70FC
:104B4000D8E70022184B1A70D4E70A98FBF752FDF9
:104B5000174A138823F00103138000238DF868306F
:104B6000029B43F001030293C8E7012118A8FBF759
:104B700067FEC7E703211020FFF72BFC9BE63A20D6
:104B8000FFF73AFA97E6FBF799FE9AE601211C2512
:104B900072E54FF0000A4FF00109069D3C23019396
:104BA00072E700BF445A0008361C0020305A000843
:104BB000E6060020FEE7FEE7FEE7FEE770B590B0F0
:104BC000364D00242C806C8001210846FDF7A4FF9F
:104BD0000226089607940F9406954FF480630C9371
:104BE00080230A9320230D932D4B05934FF480735C
:104BF0000B9309944FF400530E932A4D05A92846B0
:104C0000FEF75CFC01212846FEF777FC4FF40040DC
:104C1000FDF7FEFE01214FF40070FDF78BFF6846A3
:104C2000FEF72EF88DF8054003944FF460230293AD
:104C300000948DF8106001258DF804501A4C6946D7
:104C40002046FDF7F9FF04232A4610212046FEF7EF
:104C500044F80423324611212046FEF73EF8284648
:104C6000FEF780F829462046FEF713F8294620462D
:104C7000FEF71AF82046FEF722F82046FEF729F83C
:104C80000028FAD10848FEF71FF8074C2046FEF727
:104C900020F80028FAD110B070BD00BF781B0020AA
:104CA0004C24014008000240002401402DE9F0415D
:104CB00082B021F0FF0101430191264B187800F5E5
:104CC0000030333086025B78ABB1224C607806EB63
:104CD0008000002304220DEB02014430FBF7E2FBCD
:104CE00063781D4A13700133DBB26370EF2B1ED063
:104CF00002B0BDE8F0810123042218493046FBF7D9
:104D0000D1FB351D0024DFF85880274658F82430A1
:104D100023F0FF03234300933B46042269462846C1
:104D2000FBF7C0FB01340435102CEFD1CDE723781D
:104D30006268013222F0004262600133DBB2042B70
:104D400004D023700022034B5A70D1E70022014B9C
:104D50001A70F7E77C1B00208D040020801B0020C8
:104D6000E41D00202DE9F84F00251E4FDFF878A044
:104D70000EE00BFA00F223EA02033B81FFF796FFF5
:104D80002AE021464846FBF7B9FB0135082D27D01C
:104D90005FFA85F9BB7A43FA05F212F0010FF4D0FD
:104DA0000122AA4023EA0203BB724FEA49085FFAD4
:104DB00088F8002634464FF0010B08EB0600C0B21D
:104DC0005AF820102402A4B2CBB21C433B8943FA08
:104DD00000F212F0010FCCD10136022EEDD1D0E756
:104DE000BDE8F88F7C1B0020E41D002008B50120E1
:104DF000FDF7BCFE0020FDF7B9FE08BD82B0002320
:104E00000193044B0193019B18440190019B19608D
:104E100002B07047006C004082B000230193054B44
:104E20000193019B18440190019B188880B202B045
:104E3000704700BF006C004008B5FDF775FD01200C
:104E4000FDF7B2FD0020FDF7BBFD0020FDF78EFD54
:104E50000020FDF7BFFD0020FDF7D0FD0020FDF78D
:104E6000C3FD0020FDF7A6FD01210448FDF762FE09
:104E700001210348FDF76CFE08BD00BF3D40030063
:104E800021000018014B1860704700BF003000403F
:104E9000014B5860704700BF00300040014B9860E4
:104EA000704700BF003000404AF6AA22014B1A604A
:104EB000704700BF003000404CF6CC42014B1A60F6
:104EC000704700BF003000404FF0FF0C1CEAD0528A
:104ED0001EBF1CEAD15392EA0C0F93EA0C0F6FD05D
:104EE0001A4480EA010C400218BF5FEA41211ED03B
:104EF0004FF0006343EA501043EA5111A0FB013127
:104F00000CF00040B1F5000F3EBF490041EAD371FB
:104F10005B0040EA010062F17F02FD2A1DD8B3F177
:104F2000004F40EBC25008BF20F00100704790F0E6
:104F3000000F0CF0004C08BF49024CEA502040EA38
:104F400051207F3AC2BFD2F1FF0340EAC2507047FE
:104F500040F400004FF00003013A5DDC12F1190F3C
:104F6000DCBF00F000407047C2F10002410021FAAE
:104F700002F1C2F1200200FA02FC5FEA310040F1C6
:104F8000000053EA4C0308BF20EADC70704792F03F
:104F9000000F00F0004C02BF400010F4000F013A77
:104FA000F9D040EA0C0093F0000F01F0004C02BF72
:104FB000490011F4000F013BF9D041EA0C018FE7E1
:104FC0000CEAD15392EA0C0F18BF93EA0C0F0AD0E7
:104FD00030F0004C18BF31F0004CD8D180EA01000D
:104FE00000F00040704790F0000F17BF90F0004FA6
:104FF000084691F0000F91F0004F14D092EA0C0F88
:1050000001D142020FD193EA0C0F03D14B0218BF1A
:10501000084608D180EA010000F0004040F0FE4060
:1050200040F40000704740F0FE4040F440007047FC
:105030004FF0FF0C1CEAD0521EBF1CEAD15392EA7B
:105040000C0F93EA0C0F69D0A2EB030280EA010C6B
:1050500049024FEA402037D04FF0805343EA111104
:1050600043EA10130CF000408B4238BF5B0042F162
:105070007D024FF4000C8B4224BF5B1A40EA0C0007
:10508000B3EB510F24BFA3EB510340EA5C00B3EB39
:10509000910F24BFA3EB910340EA9C00B3EBD10F27
:1050A00024BFA3EBD10340EADC001B0118BF5FEA79
:1050B0001C1CE0D1FD2A3FF650AF8B4240EBC250A2
:1050C00008BF20F0010070470CF0004C4CEA502063
:1050D0007F32C2BFD2F1FF0340EAC250704740F4B2
:1050E00000004FF00003013A37E792F0000F00F0A4
:1050F000004C02BF400010F4000F013AF9D040EA22
:105100000C0093F0000F01F0004C02BF490011F4B5
:10511000000F013BF9D041EA0C0195E70CEAD153AD
:1051200092EA0C0F08D142027FF47DAF93EA0C0F94
:105130007FF470AF084676E793EA0C0F04D14B0278
:105140003FF44CAF08466EE730F0004C18BF31F02A
:10515000004CCAD130F000427FF45CAF31F0004324
:105160007FF43CAF5FE700BF4FEA4002B2F1FE4F71
:105170000FD34FF09E03B3EB12620DD94FEA002319
:1051800043F0004310F0004F23FA02F018BF4042F2
:1051900070474FF00000704712F1610F01D14202D9
:1051A00005D110F0004008BF6FF0004070474FF08D
:1051B00000007047032A70B422D940EA01039B071C
:1051C00011D003780C78A3421DD10A44013105E0C7
:1051D00010F8013F11F8014BA34214D19142F7D1CD
:1051E000002070BC70470D6806680C46AE4203464E
:1051F00001F1040100F1040008D1043A032AF2D8B5
:10520000002ADED1ECE7181B70BC70472146184617
:10521000D7E700BF844641EA000313F0030349D1F6
:10522000403A23D30B6803604B6843608B6883600C
:10523000CB68C3600B6903614B6943618B69836110
:10524000CB69C3610B6A03624B6A43628B6A8362F8
:10525000CB6AC3620B6B03634B6B43638B6B8363E0
:10526000CB6BC36340304031403ADBD230320BD39A
:105270000B6803604B6843608B688360CB68C360D6
:1052800010301031103AF3D20C3205D351F8043BF0
:1052900040F8043B043AF9D2043208D0D2071CBFCC
:1052A00011F8013B00F8013B01D30B8803806046F5
:1052B000704700BF082A13D38B07B1D010F0030347
:1052C000AED0C3F10403D21ADB071CBF11F8013BB7
:1052D00000F8013BA4D331F8023B20F8023B9FE7E2
:1052E000043AD9D3013A11F8013B00F8013BF9D255
:1052F0000B7803704B7843708B78837060467047EF
:1053000070B4860746D0541E002A41D0CAB2034664
:1053100002E014F1FF343BD303F8012B9D07F8D1D1
:10532000032C2ED9CDB245EA05250F2C45EA0545BB
:1053300019D9264603F11002103E0F2E42F8105CD8
:1053400042F80C5C42F8085C42F8045C02F110027E
:10535000F2D8A4F1100222F00F0204F00F04103270
:10536000032C13440DD91E462246043A032A46F85C
:10537000045BFAD8221F22F003020432134404F023
:1053800003042CB1C9B21C4403F8011B9C42FBD19D
:1053900070BC704714460346C2E700BF2D2D2D2D6B
:1053A0002D2D2D2D2D2D2D2D2D5772697465436FAB
:1053B0006E666967200A0D002D2D2D2D2D2D2D2DAA
:1053C0002D2D2D2D2D436F6E6669675F53657420FB
:1053D0000A0D00002D2D2D2D2D2D2D2D2D2D2D2D9A
:1053E0002D52656164436F6E666967200A0D000087
:1053F0002D2D2D2D2D2D2D2D2D2D2D2D2D436F6E44
:105400006669675F496E6974200A0D00256420543F
:10541000494D375F49525148616E646C65720A0D9F
:10542000000000000A0D253130643A2B2B2B205F41
:105430005764674B69636B204E413D2564206D6F57
:1054400064653D2564202B2B2B2B0A0D00000000EA
:105450000A0D25643A52455354415254204E413D61
:105460002564206D6F64653D25640A0D0000000011
:1054700073656E6420666C656E203D2025643B205C
:105480006C656E203D202564200A0D00675F574C37
:10549000532E737461747573203D202564206865F4
:1054A000696768743D25640A0D0000000200000D64
:1054B00004050000010000010B0000020102FF00D2
:1054C0000101FF000106FF000105FF0001050000CA
:1054D00067436F756E744E6F74416E737765724378
:1054E0006F6E74726F6C6C6572203D202564202095
:1054F0003E20310A0D000000526573746172744DD4
:10550000430A0D00675F5550507374727563742DB4
:105510003E6C617374537461727454696D65203D9F
:105520002025642C204D696E54696D654166746553
:105530007253746172743D2564200A0D00000000EE
:1055400055505073746174757352717374457874E7
:105550004E657728290A0D00253130643A55707060
:105560002D3E656E67696E655374733D25780A0D2F
:10557000200000006C6173745265737054696D652E
:10558000203D2025642C20737461747573203D20A8
:1055900025640A0D00000000686569676874203D95
:1055A0002025692E25303269206D657465720A0DDB
:1055B0000000000020776C734F6B203D2025642095
:1055C00020675F574C532E737461747573203D20B0
:1055D0002564206865696768743D25640A0D0000CC
:1055E000636F6E746163746F725365744F6E0A0DEE
:1055F00000000000636F6E746163746F72536574B2
:105600004F66665472793A20000000003129675FC6
:105610005550507374727563742D3E737461747554
:1056200073203D2025780A0D000000002B2B2B66EF
:10563000697273742E73746172743D25642C66698B
:105640007273742E73746F703D25642C7365636F71
:105650006E642E73746172743D25642C7365636F80
:105660006E642E73746F703D25640A0D0000000097
:105670005550507374617274547279205570702D46
:105680003E4E413D2564200A0D000000555050203B
:10569000535441525420535543434553530A0D002C
:1056A000555050205354415254204552524F520AA3
:1056B0000D000000696628216175746F4D6F646587
:1056C0005365744F6E29200A0D0000005550507329
:1056D0007461727443616C6C6261636B20696628EB
:1056E000215550506661756C745265736574285508
:1056F00070702929207472696573557070537461D4
:1057000072743D25640A0D00656E64205550507317
:105710007461727443616C6C6261636B205570706C
:105720002D3E4E413D25642068646C3D25640A0D84
:1057300000000000555050737461727443616C6CCA
:105740006261636B205550502053544152542045A0
:1057500052524F5220747269657355707053746160
:1057600072743D25640A0D0055505073746F702893
:10577000290A0D0034295570702D3E7374617475BB
:1057800073203D2025780A0D00000000675F7343F9
:105790006F6E6669672E75384D6F6465203D3D20DC
:1057A0004D4F44455F534C41564520262620282125
:1057B000674973526573746172744D43207C7C2019
:1057C00067436F756E744E6F74416E737765724385
:1057D0006F6E74726F6C6C6572203C203229200AE7
:1057E0000D0000004D494E494D554D203C3D2031A6
:1057F000202026262053544F502020675F555050BC
:105800007374727563743D25640A0D2000000000F6
:105810004D494E494D554D203D2030202026262013
:10582000535441525420675F5550507374727563DE
:10583000743D25642020675F5365636F6E64555027
:10584000503D25640A0D20004DC058494D554D204E
:1058500020262620535441525420675F55505073E0
:1058600074727563743D25640A0D00004DC058497B
:105870004D554D2020262620535441525420675F19
:105880005365636F6E645550503D25640A0D0000EA
:10589000675F574C532E737461747573203D2025D8
:1058A0006420675F5550507374727563742D3E6544
:1058B0006E67696E655374733D256420675F536539
:1058C000636F6E645550502D3E656E67696E65530B
:1058D00074733D25640A0D00656E64206D6F6E69FA
:1058E000746F72696E670A0D00000000737464695A
:1058F0006F2E633A20696E637265617365204D4156
:10590000585F535452494E475F53495A450A0D0058
:10591000D0BC3300D0BAD0B2D0B0D18000000000EB
:10592000D0BAD092D1820000D0BAD0B2D0B0D1805B
:105930002AD18700D0BAD092D1822AD18700000024
:105940000000000069323A00253278200000000093
:105950002D2D75384D6F64653D2564204D6F646253
:1059600075735F53656E642D2D75384E6574776F52
:10597000726B41646472657373203D3D2025640A37
:105980000D0000002075384D6F64653D25642D2D98
:105990004672616D654D6F646275735F44617461D9
:1059A00050726F636573732D2D75384E6574776F04
:1059B000726B41646472657373203D3D20256420E1
:1059C0000A0D00002D2D2D2D4672616D6550726FF0
:1059D000636573732D2D2D2D675F73436F6E66693D
:1059E000672E75384E6574776F726B4164647265AB
:1059F0007373203D3D202564200A0D00675F574CDE
:105A0000537365727665724D6F64653D2564202021
:105A1000675F73436F6E6669672E576C7353657269
:105A20007665724D6F6465203D202564200A0D0067
:105A30006D61747269786974363636207365727672
:105A40006963650058375D4A53416D3570784B6F17
:105A5000694C4D7A4D4F72304324354B00000000A5
:105A60000103000000000000100000200000000002
:105A70000000000000000000010000000000000025
:105A80000000000000000000000000000000000016
:105A90000000000000000000000000000000000006
:105AA00000000000000000000000000000000000F6
:105AB00000000000000000000000000000000000E6
:105E900000000000000000000000000001020304F8
:105EA000010203040607080902040608FFFF0100B7
