:020000040800F2
:10000000E80B00207903000875030008791E00083A
:100010007B1E00087D1E00087F1E000800000000F7
:100020000000000000000000000000007503000850
:100030007503000800000000750300089D02000819
:1000400075030008750300087503000875030008B0
:1000500075030008750300087503000875030008A0
:100060007503000875030008750300087503000890
:100070007503000875030008750300087503000880
:1000800075030008750300087503000800000000F0
:1000900000000000000000000000000075030008E0
:1000A00075030008C50800087503000875030008FB
:1000B000D9040008750300087503000875030008DB
:1000C0007503000875030008750300087503000830
:1000D0007503000875030008750300084111000846
:1000E0007503000875030008750300080000000090
:1000F0000000000000000000000000000000000000
:1001000000000000000000000000000000000000EF
:1001100000000000000000007503000875030008DF
:100120005FF808F1034A93889BB243F01003938071
:10013000704700BF00280040034A938823F0100353
:100140001B041B0C938070470028004010B5044628
:10015000FFF7E8FF220C034B1A83A4B29C83FFF73E
:10016000EBFF10BD0028004003889BB2244A904258
:1001700012D002F5006290420ED0B0F1804F0BD049
:10018000A2F59832904207D002F58062904203D0E7
:1001900002F58062904203D123F070034A88134332
:1001A000184A904225D002F58062904221D023F473
:1001B00040739BB2CA88134303808B8883850B8866
:1001C00003850F4B98420FD003F5006398420BD084
:1001D00003F54063984207D003F58063984203D04B
:1001E00003F58063984201D10B7A03860123838251
:1001F000704703808B8883850B880385F6E700BFF3
:10020000002C0140001000404FF6FF738380002354
:100210000380C38043800372704731B9038823F0A1
:1002200001031B041B0C0380704703889BB243F03F
:100230000103038070472AB983899BB223EA010135
:100240008181704783899BB21943818170470187FF
:100250007047028A83899BB2114204D0194214BFAD
:1002600001200020704700207047C94389B20182F5
:1002700070470000064A0023137006490B60536064
:100280009360D3601361044A82F82330704700BF43
:1002900014000020DC07002000ED00E038B5084A1B
:1002A000136801331360074D2C1D143501E0AC4277
:1002B00005D054F8043B002BF9D09847F7E738BD38
:1002C000DC07002014000020BFF34F8F0449CA68E8
:1002D00002F4E062034B1343CB60BFF34F8FFEE7A2
:1002E00000ED00E00400FA05024B1880598000225E
:1002F0001A7170472800002029B9054A138823EA9B
:10030000000010807047024B1A8810431880704715
:100310002800002029B9054A538823EA00005080AC
:100320007047024B5A8810435880704728000020BD
:1003300008B50B4B1B7913B1094B5B884BB1084BCC
:100340001B8843B1074A136923F01003136130BFC0
:1003500008BDFFF7B9FF0121084600F02FF908BDDD
:100360002800002000ED00E00122014B1A717047C7
:1003700028000020FEE7000008B5104B104A9A4202
:100380000DD213460F48801A20F0030004301044A9
:100390000D4A52F8041B43F8041B8342F9D10B4861
:1003A0000B494FF000028842B8BF40F8042BFADB3B
:1003B00000F022F800F002FB08BD00BF140000208E
:1003C00000000020130000208822000814000020F4
:1003D000E807002008B545F2555001F06FFD0620F2
:1003E00001F072FD40F6FF7001F074FD01F078FD40
:1003F00001F07EFD08BD000082B0344B1A6842F067
:1004000001021A605968324A0A405A601A6822F09A
:10041000847222F480321A601A6822F480221A60F0
:100420005A6822F4FE025A604FF41F029A600022BA
:10043000DA62009201921A6842F480321A601A4617
:10044000136803F400330193009B01330093019B75
:100450001BB9009BB3F5A06FF2D11C4B1B6813F4C2
:10046000003F14BF012300230193019B012B05D002
:100470004FF00062174B9A6002B07047134B5A68F6
:100480005A605A685A605A685A605A6822F47C1254
:100490005A605A6842F498125A601A6842F08072A0
:1004A0001A601A46136813F0007FFBD0074B5A6896
:1004B00022F003025A605A6842F002025A601A4659
:1004C000536803F00C03082BFAD1D1E70010024067
:1004D0000000FFF800ED00E008B501214FF080407A
:1004E000FFF7B7FE00B908BD084A13780133DBB245
:1004F0001370074A32F813104FF08040FFF7A7FE41
:1005000001214FF08040FFF7B0FEECE72D00002006
:100510008820000805490B8B9BB2888B80B20A8B20
:1005200092B29342F7D140EA03407047002800405E
:100530004170090A01707047C1700B0A83700B0C7F
:100540004370090E017070470170090A41707047CD
:1005500001700B0A43700B0C8370090EC170704759
:10056000027843781B0403EB0263C278134480785B
:1005700003EB00207047C27883781B0403EB02630F
:1005800002781344407803EB0020704703784078EA
:1005900000EB032080B270474378007800EB032023
:1005A00080B27047014B1860704700BF20000E42B8
:1005B000014B1860704700BFA0000E420A4A136842
:1005C00023F0030318431060084A136943F004033F
:1005D0001361012906D020BF044A136923F00403E4
:1005E0001361704730BFF7E70070004000ED00E096
:1005F00008B52B4B984212D02A4B984218D02A4B60
:1006000098421ED0294B984224D0294B98422AD098
:10061000284B984230D0284B984236D008BD012153
:10062000042000F057FB0021042000F053FB08BD1C
:100630000121082000F04EFB0021082000F04AFBB9
:1006400008BD0121102000F045FB0021102000F022
:1006500041FB08BD0121202000F03CFB00212020AF
:1006600000F038FB08BD0121402000F033FB0021E1
:10067000402000F02FFB08BD0121802000F02AFB64
:100680000021802000F026FB08BD01214FF480707E
:1006900000F020FB00214FF4807000F01BFBBDE751
:1006A00000080140000C014000100140001401400E
:1006B00000180140001C014000200140F0B5CB783B
:1006C00003F00F0713F0100F1CBF8B781F430B783C
:1006D000FBB10568002301264FF00F0C03E04261D7
:1006E0000133082B14D006FA03F20C8832EA040412
:1006F000F6D19C000CFA04FE25EA0E0507FA04F474
:100700002543CC78282CEAD0482C08BF0261E7E7C3
:1007100005600B88FF2B22D94668002208234FF082
:10072000010E4FF00F0C03E001330432102B15D0F3
:100730000EFA03F40D8834EA0505F5D10CFA02F53A
:1007400026EA050607FA02F52E43CD78282D08BFC4
:100750004461CD78482D08BF0461E5E74660F0BDEF
:10076000016170474161704730B40028184BB4BF35
:10077000DB695B6882B200F44014B4F5401F16D008
:1007800010F4801F1BD0C0F303450324AC4023EAC0
:10079000040343F0706319B1410D09018A4013430A
:1007A00000280B4AB4BFD361536030BC704723F0BC
:1007B0007063074D6C6824F070646C60EBE7440D67
:1007C000240102FA04F423EA040343F07063E2E72D
:1007D0000000014008B500F095F9012000F0D2F9C1
:1007E000002000F0DBF9002000F0AEF9002000F05E
:1007F000DFF9002000F0F0F9002000F0E3F900201C
:1008000000F0C6F90121094800F048FA00214FF430
:10081000A04000F043FA0121054800F04DFA002104
:100820004FF4003000F048FA08BD00BF3D0003005F
:100830002100001870B582B01D4C2046FFF7D8FE8D
:100840001C4D2846FFF7D4FE1B4E3046FFF7D0FE66
:100850001A48FFF7CDFE01211948FFF785FF032352
:100860008DF806304FF6FF73ADF8043000238DF895
:10087000073001A92046FFF721FF01A93046FFF705
:100880001DFF48238DF8073001A92846FFF716FF02
:100890002025ADF8045010238DF8073001A920461B
:1008A000FFF70CFF29462046FFF75CFF02B070BD42
:1008B00000080140000C01400010014000140140FC
:1008C0000002300008B501213948FFF7C2FC0028BA
:1008D0006DD0384B1B88002B61D1364B9B78032B96
:1008E00059D8DFE803F0022A344620213248FFF7C6
:1008F00039FF304B40F6B8321A8001229A704FF41B
:1009000000429A80DA8812F4004F0FD14FF48043EE
:1009100028498B80002101201A4206D101465B083C
:10092000FAD10022234B9A803CE019B90222214BD4
:100930009A7037E01F4A9380F8E720211E48FFF79E
:100940000FFF1C4B1E221A8000229A702AE02021E1
:100950001948FFF705FF174A9188D3880B40002BF1
:1009600014BF4FF4FA726422124B1A8003229A7059
:1009700018E020211048FFF7F5FE0E4A4FF4FA73F5
:10098000138093885B089380002B14BF02220022FF
:10099000084B9A7006E00022064B9A7002E0013B79
:1009A000044A138001210248FFF75FFC08BD08BD1F
:1009B000004401402E0000200008014000B585B031
:1009C000FFF708FD324B1A68324B1340B3F1005F5A
:1009D00041D0FFF7FFFEFFF72DFFFFF74BFC002193
:1009E0000846FFF781FC00F06DF8002000F0B4FA33
:1009F000294800F013FB00F01FFB284B41F20102D5
:100A0000DA8000241C809C7001A8FFF7FDFB0723FF
:100A1000ADF804304FF47A73ADF80830204D01A9D9
:100A20002846FFF7A1FB01212846FFF7F6FB01222C
:100A300011462846FFF7FFFB1A4B4FF000721A6071
:100A4000402283F819232046FFF7B2FD00F046F854
:100A5000FFF76EFCFAE7144B1A68144B9A42B8D0B1
:100A6000134B1A68134B9A42B3D072B6084C214606
:100A70004FF0006000F0D4FC0F4B1B680F4A13606E
:100A80000F4A1360226882F308889847FEE700BF88
:100A9000003800080000FF2FA11600082E000020DB
:100AA0000044014000E100E0003000085555AAAACA
:100AB00004300008AD0DADDE04380008E407002066
:100AC000E0070020002304491A465A500C33B3F5BE
:100AD000C07FFAD1704700BF3800002070B5084CC5
:100AE00004F5C075002602E00C34AC4207D0236840
:100AF000002BF9D06168207A98472660F4E770BD32
:100B0000380000200E4B1A6842F001021A60596842
:100B10000C4A0A405A601A6822F0847222F4803229
:100B20001A601A6822F480221A605A6822F4FE02BF
:100B30005A604FF41F029A600022DA62704700BFC9
:100B4000001002400000FFF80D4B1A6822F48032BA
:100B50001A601A6822F480221A60B0F5803F03D030
:100B6000B0F5802F06D07047054A136843F48033F0
:100B700013607047024A136843F4A0231360704760
:100B800000100240014B1860704700BF0000424255
:100B9000014B1860704700BF60004242034A53682F
:100BA00023F0030318435060704700BF0010024059
:100BB000034A536823F0F00318435060704700BFA6
:100BC00000100240034A536823F4E0631843506066
:100BD000704700BF00100240034A536823F460537B
:100BE00043EAC000506070470010024010B4274B29
:100BF0005B6803F00C03042B2BD0082B2CD013B113
:100C0000234B036001E0224B0360204C6368C3F375
:100C10000313204AD35CD9B20368CB4043606168B8
:100C2000C1F30221515CC9B223FA01F1816061680C
:100C3000C1F3C221515CC9B2CB40C3606168C1F34A
:100C400081310A44127CD2B2B3FBF2F3036110BCCF
:100C500070470F4B0360D8E70C4A53685268C3F3E0
:100C60008343023312F4803F04D10B4A02FB03F3A7
:100C70000360CAE7054AD26A02F00F020132044952
:100C8000B1FBF2F203FB02F30360BEE70010024087
:100C900000127A000000002000093D0029B9054A31
:100CA000936923EA000090617047024A93691843F0
:100CB000906170470010024029B9054AD36923EAC0
:100CC0000000D0617047024AD3691843D061704771
:100CD0000010024029B9054AD36823EA0000D06019
:100CE0007047024AD3681843D06070470010024032
:100CF00029B9054A136923EA000010617047024AC6
:100D000013691843106170470010024008B5234B67
:100D100098420CD0224B984214D0224B98421CD0BF
:100D2000214B984224D0214B98422CD008BD012160
:100D30004FF48040FFF7CEFF00214FF48040FFF7D3
:100D4000C9FF08BD01214FF40030FFF7D1FF00219A
:100D50004FF40030FFF7CCFF08BD01214FF4802095
:100D6000FFF7C6FF00214FF48020FFF7C1FF08BD49
:100D700001214FF40020FFF7BBFF00214FF40020BA
:100D8000FFF7B6FF08BD01214FF48010FFF7B0FF59
:100D900000214FF48010FFF7ABFFC7E70038014098
:100DA0000044004000480040004C0040005000401B
:100DB00030B587B004460D46038A9BB223F44053F6
:100DC000CA881343038283899BB223F4B05323F070
:100DD0000C038A8813430A8913434A8913439BB23D
:100DE0008381838A9BB223F440738A89134383826D
:100DF00001A8FFF7FBFE1A4B9C420CBF049B039B10
:100E0000A28912F4004F03EB830303EB83032968E9
:100E100014BF49008900B3FBF1F1124BA3FB01237E
:100E200058090501642300FB1313A28912F4004F33
:100E30000BD11B0132330B4AA2FB0323C3F3431331
:100E40002B439BB2238107B030BDD9003231054A14
:100E5000A2FB0131C1F3421242EA0503F1E700BFF0
:100E6000003801401F85EB5131B9838923F40053C9
:100E70001B041B0C8381704783899BB243F400538E
:100E80008381704710B4C1F3421401F01F010123A4
:100E900003FA01F19C420AD0022C0CBF103014302E
:100EA0003AB9036823EA0101016010BC70470C30B5
:100EB000F6E7036819430160F7E7C1F30801818091
:100EC00070478088C0F30800704710B4C1F3421225
:100ED00001F01F040123A340012A12D0022A0CBFF3
:100EE000028A828A92B21340028892B26BB1090AD6
:100EF000012303FA01F10A4214BF1846002010BC76
:100F00007047828992B21340EEE70020F7E70B0AA0
:100F100001219940C94389B201807047B9B110B429
:100F20000C46014604444FF6FF704AF2010201E00C
:100F3000A1420FD011F8013B5840082310F0010FD7
:100F400014BF82EA50004008013BF7D1F0E74FF6AA
:100F5000FF70704710BC704770B584B00446012123
:100F60004FF48020FFF7A8FE2948FFF7CFFE002CA2
:100F700042D0284BDC60274DEB681A6800921A7942
:100F80001202ADF804205A791202ADF806209B79BE
:100F90001B02ADF808300026ADF80C600C23ADF84C
:100FA0000A301B4C69462046FFF702FF012240F23F
:100FB00025512046FFF766FF012240F226612046B8
:100FC000FFF760FF324640F224412046FFF75AFF08
:100FD000324640F227712046FFF754FF05F50473AF
:100FE000C5F81836C5F814360B4B80225A6010220B
:100FF00083F8272304B070BD064B4FF416525A6095
:1010000000221A725A729A721A1DDA60B3E700BF90
:1010100000480040B801002000E100E0054BD3F893
:101020001C360BB100207047024BC3F81C06012090
:10103000704700BFB801002070B582B0012108469A
:10104000FFF75AF94FF48063ADF8043001248DF8AE
:10105000064018238DF807301F4D01A92846FFF7D9
:101060002DFB4FF40063ADF804308DF806404823A3
:101070008DF8073001A92846FFF720FB4FF4804682
:10108000ADF804608DF8064010238DF8073001A9F3
:101090002846FFF713FB31462846FFF763FB21463E
:1010A0004FF48020FFF708FE21460C48FFF7DCFED6
:1010B0000B4B1A4602F8104BC3F8102603F50472C6
:1010C000D3F81836934205D0224640F227710348E0
:1010D000FFF7D8FE02B070BD000C01400048004090
:1010E000B801002038B505460C4601210846FFF737
:1010F00011F9114B1B7863B1631E9BB2B3F5806F7E
:1011000007D20D4BD3F81806021903F5C2639A42B1
:1011100000D338BD2246294600F0F2FE064AD2F836
:1011200018361C44C2F81846012240F227710348C1
:10113000FFF7A8FEEDE700BFB8010020004800401F
:1011400010B540F225515848FFF7BFFEA0B940F254
:1011500024415548FFF7B9FEB0BB40F22771524811
:10116000FFF7B3FE002851D140F226614E48FFF749
:10117000ACFE00287DD110BD01210220FFF7CAF886
:10118000494C40F225512046FFF7C1FE40F2244170
:101190002046FFF7BCFE012240F224412046FFF723
:1011A00071FE2046FFF78DFE404BD3F810261070DD
:1011B000D3F8102603F504739A42C8D20132A3F57E
:1011C0000473C3F81026C2E7374C40F2244120468E
:1011D000FFF79DFE002240F224412046FFF752FE19
:1011E000324BD3F81C363BB1304A02F11000D2F832
:1011F0001016091A89B298472C4B03F11002C3F854
:10120000102600210220FFF785F8A6E7264C40F2C1
:1012100027712046FFF77BFE002240F22551204631
:10122000FFF730FE214BD3F81426D3F818369A4234
:1012300011D24FF480411E48FFF792FA1B4CD4F8AC
:10124000143619781848FFF738FED4F814360133ED
:10125000C4F8143688E7002240F227711248FFF7DD
:1012600011FE124B03F50472C3F81826C3F81426B6
:101270007AE70D4C40F226612046FFF748FE4FF416
:1012800080410B48FFF76EFA40F225512046FFF7E8
:101290003EFE012240F225512046FFF7F3FD0021DA
:1012A0000120FFF737F866E700480040B80100204A
:1012B000000C0140034B044A5A6002F188325A6024
:1012C000704700BF0020024023016745024A1369AE
:1012D00043F0800313617047002002400B4BDB6832
:1012E00013F0010F0FD1094BDB6813F0040F01D08D
:1012F00002207047054BDB6803F01003002B14BF7E
:101300000320042070470120704700BF00200240E6
:1013100010B50446FFF7E2FF012809D134B1FFF709
:10132000DDFF013C012803D1002CF8D1052010BDC0
:10133000002C08BF052010BD38B505464FF43020FD
:10134000FFF7E6FF042800D038BD0A4C236943F0BC
:10135000020323616561236943F0400323614FF475
:101360003020FFF7D5FF236923F00203DB04DB0CF9
:101370002361E9E70020024030B583B005460C4602
:10138000002301934FF40050FFF7C2FF042801D05F
:1013900003B030BD124A136943F001031361A3B2D5
:1013A0002B804FF40050FFF7B3FF042807D00C4AFE
:1013B000136923F00103DB04DB0C1361E8E702355A
:1013C0000195019B240C1C804FF40050FFF7A0FFF7
:1013D000034A136923F00103DB04DB0C1361D7E735
:1013E0000020024070B504460D464FF40050FFF750
:1013F0008FFF042800D070BD084E336943F001030D
:10140000336125804FF40050FFF782FF336923F0EA
:101410000103DB04DB0C3361EDE700BF0020024079
:1014200021F0604121F07F010143014B9960704739
:1014300000ED00E0002B00F0CD802DE9F04782B0F8
:1014400081460D4616461F460024A04602F0080AB3
:1014500010E006F007024146484600F0C7FD04E0F0
:10146000019529464846FFF767F80134E4B2A742E0
:1014700000F0AD80002DECD0CDF80480731E2B2B36
:10148000F3D801A252F823F05D15000851150008A9
:101490006B140008391500086B1400086B14000861
:1014A0006B1400086B1400086B1400084515000845
:1014B0006B140008611400086B1400086B1400081A
:1014C0006B1400086B1400086B1400086B14000800
:1014D0006B140008931500086B1400086B140008C7
:1014E0006B1400086B1400086B1400086B140008E0
:1014F0006B140008931500086B1400086B140008A7
:101500006B1400086B1400088B1500088115000887
:101510006B1400086D1500086B1400086B140008AC
:101520006B1400086B1400086B1400087715000892
:101530006B14000863150008019529464846FFF71B
:1015400007F892E70195A9B24846FEF7F1FF8CE74C
:101550000195A9B24846FEF7F7FF86E789F80050E3
:1015600083E729684846FEF7E7FF7EE72968484693
:10157000FEF7EEFF79E729884846FEF7D9FF74E7C2
:1015800029884846FEF7E0FF6FE72B7889F800309E
:101590006BE7A5F10803022B08D805F003039B00B5
:1015A00003F10053A3F618031B680193BAF1000F6F
:1015B00006D002AD55F8041D4846FEF7BDFF54E7BE
:1015C00002AD55F8041D4846FEF7C2FF4DE702B0D4
:1015D000BDE8F087704700BFF0B5C1B016460AB14C
:1015E00000293ED00D4607464FF480720021684620
:1015F00000F0FCFCB4B21F4B1B78A3B3FB238DF8A7
:1016000000301D4B19680DF10100FEF795FF1B4BD3
:1016100019680DF10500FEF78FFF194B19680DF1E0
:101620000900FEF789FF10340C2340AA1A4402F87F
:10163000FF7C35B140AAD01832462946FE3800F06A
:101640005FFCA11E89B26846FFF768FC0DEB04033E
:1016500003F8020C000A03F8010C21466846FFF764
:1016600041FD41B0F0BD0434FC238DF8003000236F
:10167000DBE700BFD8070020E8F7FF1FECF7FF1FEC
:10168000F0F7FF1F00B583B002AB03F8041D012281
:10169000194640F08000FFF79FFF03B05DF804FBA0
:1016A000032900D870472DE9F04FB5B00C46064627
:1016B000431813F8012C13F8025C45EA022502399D
:1016C00089B2FFF72BFC854202D035B0BDE8F08F20
:1016D00000F006FC33784BB3FC2B56D0FB2BF4D137
:1016E0000F2CF2D9BA4B196805A8FEF725FFB94BA4
:1016F000196806A8FEF720FFB74B196807A8FEF780
:101700001BFF9DF8142073789A42DED105AA731C42
:1017100006F10C0512F8010F13F8011F8842D4D10D
:10172000AB42F7D10D274FF0020802E001274FF03E
:1017300000083378FB2B14BF00230123A74A137042
:10174000E11B8DB2022DC0D0F419BA22002105A8E8
:1017500000F04CFC033DADB2F05D032819D0042825
:1017600068D0B8F1000FB0D0661CA0F16603082B5A
:1017700000F22283DFE813F0C4005E02E4029A0262
:10178000D300E400B3013D01060201274FF0000839
:10179000CFE7042D04D003210846FFF773FF94E739
:1017A000637894F8029049EA0329E37894F8048076
:1017B00048EA03280FFA88F81FFA88F6C9F57F432C
:1017C000FF33B3420CDBB42E2FD85FFA88F88DF8C4
:1017D0001480002738464FF4165B4FF0040A09E3E3
:1017E00002210320FFF74EFF6FE7FC210122F7E201
:1017F00041F201010A22F3E2002101232122F1E258
:1018000034AB18440123BB38FFF714FEF1E23FB9B3
:1018100008F10102D2B205A92078FFF7DDFE54E7F6
:1018200039462078FFF72EFF4FE720210320FFF7EE
:1018300029FF4AE7042D04D003210420FFF722FFEB
:1018400043E7637894F8029049EA0329E37894F82F
:10185000048048EA03280FFA88F81FFA88F6C9F5C9
:101860007F43FF33B3420CDBB42E44D85FFA88F8D1
:101870008DF814800027384646F2040A4FF0040B16
:1018800011E002210420FFF7FDFE1EE7C3F38103F0
:1018900003F108015B4614220344DDB2ABB29E4261
:1018A00014D20927284683B29E4216D9F7B94B4471
:1018B0009BB25345EAD046F208029342E6D0B3F514
:1018C000C04FE3D0002101232122E5E734AB1844C7
:1018D0000123BB38FFF7AEFDE4E73FB908F1010291
:1018E000D2B205A92078FFF777FEEEE639462078D8
:1018F000FFF7C8FEE9E620210420FFF7C3FEE4E677
:1019000045B934A92C2301F8BC3D01226620FFF71C
:1019100063FEDAE603216620FFF7B4FED5E655B98B
:101920004FF4E43105A8FEF707FE042205A920784C
:10193000FFF752FEC9E603216A20FFF7A3FEC4E6C3
:10194000062D04D003216B20FFF79CFEBDE6304638
:10195000FEF706FE8046601DFEF718FE0546C8F538
:10196000E43383420CD3B4280FD818F0030F02D10C
:1019700010F0030F0ED009212078FFF783FEA4E6B4
:1019800002212078FFF77EFE9FE620212078FFF7D6
:1019900079FE9AE630680DF1D00A4AF8BC0DB3889A
:1019A000ADF8183008F1006707F56057C5F38F06EA
:1019B000DFF82C90A9EB080907EB090050448EB919
:1019C000AA1DD2B205A92078FFF706FE7DE600BF6A
:1019D000E8F7FF1FECF7FF1FF0F7FF1FD807002005
:1019E00006C8FFF757F8041BFEF7B2FD013EB6B27A
:1019F000E2E7062D6ED93046FEF7B2FD0746601DC0
:101A0000FEF7C4FD0646C7F5E43383420CD3B42881
:101A10000FD817F0010F02D110F0010F0ED00921DD
:101A20002078FFF72FFE50E602212078FFF72AFEEC
:101A30004BE620212078FFF725FE46E6063DA8422A
:101A400004D004212078FFF71DFE3EE672B604F1B3
:101A5000070B07F1006505F5605501210420FEF72D
:101A600059FCFFF727FCC6F34F0800274FF6FF7A13
:101A700001950BEB47001FFA87F9C14517D3FFF714
:101A800025FC00210420FEF745FC62B6C1451CD1AF
:101A9000D4F8013034AD45F8C43D314604A8FEF712
:101AA00047FD062229462078FFF796FD0DE635F81A
:101AB000023B5345E3D1FEF76FFD0146504502D08E
:101AC0000198FFF78FFC0137D2E70B212078FFF751
:101AD000D9FDFAE503216D20FFF7D4FDF5E5082DCA
:101AE00004D003216C20FFF7CDFDEEE5B64B1A685C
:101AF000B64B9A420FD0FFF7DDFBB54D2846FFF7F6
:101B00001BFCB4492846FFF737FCB049AE48FFF745
:101B100033FCFFF7DBFB3046FEF722FD0646601D77
:101B2000FEF71EFD0746C6F5E43398420AD8B0F525
:101B3000E43F0CD816F0030F0ED009212078FFF7F0
:101B4000A1FDC2E502212078FFF79CFDBDE5022141
:101B50002078FFF797FDB8E5FFF7ACFB26F47F751B
:101B600025F003053E44B54280F0758105F1006023
:101B700000F56050FFF7E0FB042840F0658105F5B3
:101B80008065F0E7062D04D003216E20FFF77AFD73
:101B90009BE53046FEF7E4FC0546601DFEF7F6FCCB
:101BA000B5F5E43F09D84FF6FF73ADF80A308A491E
:101BB0000D4408274AF201061DE002212078FFF7B4
:101BC00061FD82E5BDF80A309BB211F8012F534048
:101BD000ADF80A303B46BDF80A2012F0010FBDF8FF
:101BE0000A20C2F34E0218BF7240ADF80A20013B32
:101BF00013F0FF03EFD1A942E4D1BDF80A309BB244
:101C0000984204D004212078FFF73CFD5DE5FFF702
:101C100051FB6F48FFF790FBFFF758FBFEF7A4FB63
:101C2000D4F8013034A941F8C43D04222078FFF7EC
:101C3000D3FC4AE5022D04D003216720FFF722FDE3
:101C400043E56578A6782F46C5F12C02B24207DB42
:101C500015F0030F09D009216720FFF713FD34E5C4
:101C600002216720FFF70EFD2FE5B4F80120ADF843
:101C700014200DF1160837440AE0284600F00EF94A
:101C800001464046FEF764FC08F104080435EDB255
:101C9000BD4204DA002DF0D1FEF73CFCF0E7B21CA7
:101CA000D2B205A92078FFF797FC0EE5022D42D9A4
:101CB0006678374694F80280C6F12C03434504DA6F
:101CC00002216920FFF7DEFCFFE416F0030F04D0C9
:101CD00009216920FFF7D6FCF7E4023DA84504D0AE
:101CE00004216920FFF7CEFCEFE404F1030A012090
:101CF000FEF758FCB146474404E081B2B0B200F0B0
:101D0000BFF80436A6EB09005044BE4206D2FEF7E7
:101D100032FC002EF1D1FEF719FAF2E70020FEF7AF
:101D200041FCB4F8013034A921F8C43D02222078E6
:101D3000FFF752FCC9E403216920FFF7A3FCC4E4C8
:101D4000022D04D003216820FFF79CFCBDE46578D8
:101D50002E46A778C5F12C03BB4207DB15F0030F15
:101D600009D009216820FFF78DFCAEE4022168202C
:101D7000FFF788FCA9E40120FEF714FC3E4400278D
:101D800005E0281D394680B200F07AF80435B542E6
:101D900005D2002DF5D13846FEF7D8F9F6E7002038
:101DA000FEF700FCB4F8013034A921F8C43D02224A
:101DB0002078FFF711FC88E40121FFF763FC84E43D
:101DC0004FF492410A220BE004300008AD0DADDE65
:101DD000003000085555AAAAFF3700085946524658
:101DE00002F007030344DDB2ABB29E42BFF408AD7C
:101DF0000927284683B29E427FF609AD002F7FF463
:101E00000FAD4B449BB20C2B3FF6F6AC01A252F83F
:101E100023F000BFC11D0008F9170008EB170008E8
:101E2000F9170008DD1D0008F9170008F917000868
:101E3000F9170008F9170008F9170008F917000842
:101E4000F9170008F1170008FFF740FA042120787D
:101E5000FFF718FC39E4FFF739FAD4F8013034AE53
:101E600046F8C43D294604A8FEF766FB0822314621
:101E70002078FFF7B1FB28E4FEE7FEE7FEE7FEE788
:101E800082B000230193044B0193019B18440190FD
:101E9000019B196002B07047006C004082B00023C3
:101EA0000193054B0193019B18440190019B1888F5
:101EB00080B202B0704700BF006C0040014B186058
:101EC000704700BF00300040014B5860704700BFB2
:101ED00000300040014B9860704700BF0030004068
:101EE0004AF6AA22014B1A60704700BF003000403A
:101EF0004CF6CC42014B1A60704700BF00300040E6
:101F0000844641EA000313F0030349D1403A23D346
:101F10000B6803604B6843608B688360CB68C36069
:101F20000B6903614B6943618B698361CB69C36151
:101F30000B6A03624B6A43628B6A8362CB6AC36239
:101F40000B6B03634B6B43638B6B8363CB6BC36321
:101F500040304031403ADBD230320BD30B68036063
:101F60004B6843608B688360CB68C360103010316E
:101F7000103AF3D20C3205D351F8043B40F8043B3D
:101F8000043AF9D2043208D0D2071CBF11F8013B41
:101F900000F8013B01D30B8803806046704700BF07
:101FA000082A13D38B07B1D010F00303AED0C3F1CE
:101FB0000403D21ADB071CBF11F8013B00F8013BF8
:101FC000A4D331F8023B20F8023B9FE7043AD9D36F
:101FD000013A11F8013B00F8013BF9D20B7803708C
:101FE0004B7843708B7883706046704770B4860777
:101FF00046D0541E002A41D0CAB2034602E014F172
:10200000FF343BD303F8012B9D07F8D1032C2ED9C5
:10201000CDB245EA05250F2C45EA054519D92646D6
:1020200003F11002103E0F2E42F8105C42F80C5CD7
:1020300042F8085C42F8045C02F11002F2D8A4F104
:10204000100222F00F0204F00F041032032C13448C
:102050000DD91E462246043A032A46F8045BFAD8F4
:10206000221F22F003020432134404F003042CB1B3
:10207000C9B21C4403F8011B9C42FBD170BC7047E1
:1020800014460346C2E700BF0000000000009F099D
:10209000E4202A38704FB666FC7D419587ACCDC3ED
:1020A00013DB59F208D3B6B365941475C355713672
:1020B00020170000000000000000000000000000E9
:1020C000000000006A03FA038A041F05F905D4061C
:1020D000F40719093D0AF20BA70DE30D1E0E5A0E67
:1020E000960ED10E0D0F480F840FBF0FFB0F371048
:1020F00011117B14E5174F1BB81E22228C25F628E0
:10210000602CC92F33339D36073A713DDA40444481
:1021100066468948AB4ACD4CA74D824E054FB44F19
:102120003750B44F054F824EA74DCD4CE6492B4753
:102130004444643F843AA335C330E32B0227222270
:10214000B81E4F1BE5177B1411111210130F140E3C
:10215000160D170C180B440B6F0B9B0BC70BF20BD8
:102160001E0C4A0C750CA10CCD0C880D430EFF0EF5
:10217000BA0F75103011EC11EC11111137101B0F43
:10218000FF0DE30CC70BAB0A8F09730857073B061B
:102190001F05F304C7049C0470044404440444046D
:1021A00044044404440444044404440444044404EF
:1021B00044044404440444044404440444044404DF
:1021C00044044404440444044404440444044404CF
:1021D00044044404440444044404440444044404BF
:1021E00044044404440444044404440444044404AF
:1021F000440444044404440444044404440444049F
:10220000440444044404440444044404440444048E
:10221000D4066309F20B820E11114312A013FE14AF
:102220003016DF168D173C18EB189A19BF18E517F2
:102230000A173016A0131111820EF20B6309D4068F
:10224000440422040004DE03BC039A03770355030D
:1022500033031103EF02CD02AB028902660244028E
:1022600022020002DE01BC019A017701550133010F
:102270001101EF00CD00AB00890066004400220090
:08228000000000000000000056
:102288000000000001020304010203040607080914
:04229800020406082E
:0400000508000000EF
:00000001FF
